:0A0940000001020203030404050590
:10089C00E4750B40750A9CF509F508780874FF128D
:0808AC00087EEC4D4E4F70F385
:0108B4002221
:10005600E4FBFAEB25E0FFEA33FE74002FF5827429
:10006600403EF583EAF0A3EBF00BBB00010AE4B5D2
:1000760003E1EAB440DDE4FAFBEB25E0FFEA33FEF8
:1000860074002FF58274403EF583E0FEA3E06B70AA
:1000960002EE6A60086390FF12089C80F80BBB00B2
:0A00A600010AE4B503D3EAB440CF29
:0100B000222D
:1004F600E4F50FF50EF50DF50CF521F52275230142
:1005060075240175252A75262C75270AF528F529DF
:10051600F52AF52BF52C752D3DF52EF52FF530F535
:1005260031F532F533753460753509F536F537F53D
:1005360038F539F53AF53B753C6C753DDC753E0290
:10054600F53F754002F541F542754301754408F5DE
:1005560045754601F547F548F549F54AF54BF54C1D
:10056600F54DF54EF54FF550C203C200C202C20169
:1005760000000090E609F000000090E602F000009E
:100586000090E603F000000090E670E04480F00082
:10059600000090E60174E3F000000090E61274A2F9
:1005A600F000000090E61474E2F000000090E613FC
:1005B600F000000090E6157402F000000000000054
:1005C60090E6047480F00000007402F000000074ED
:1005D60004F00000007406F00000007408F000004B
:1005E60000E4F000000090E618F00000007410F03F
:1005F60000000090E619740CF000000090E61AF076
:1006060000000090E6207402F0000000E490E6216D
:10061600F000000090E6227402F0000000E490E68C
:1006260023F000000090E6247402F0000000E4903D
:10063600E625F000000075B5FF75B0FF755701752A
:100646005800755F0175601275550175561C755D0C
:1006560001755E437561017562437551017552D32B
:10066600D2E843D82090E668E04409F090E65CE0E2
:10067600443DF0D2AF90E680E020E105D2041200BE
:100686000390E680E054F7F0538EF8C203C20130BF
:1006960001051201D5C2013003F512005150F0C216
:1006A6000312085720001690E682E030E704E020A7
:1006B600E1EF90E682E030E604E020E0E41206CBCB
:0506C60012094E80CA7C
:0B004600900000E030E402C322D3224F
:1001D50090E6B8E0B4A1047F0180027F0090E6B804
:1001E500E0B421047E0180027E00EE4FFF90E6B868
:1001F500E0B422047E0180027E00EE4FFF90E6B857
:10020500E0B4A2047E0180027E00EE4F700302027C
:10021500B97F1A90E6B9E0B482047E0180027E00BF
:1002250090E6B9E0B481047D0180027D00ED4EFECB
:1002350090E6B9E0B483047D0180027D00ED4E6057
:100245002EE4F516E516C39F501874212516F8E619
:10025500FE74402516F582E434E7F583EEF00516C5
:1002650080E2E490E68AF090E68BEFF00204EE90EF
:10027500E6B9E0B486047E0180027E0090E6B9E02E
:10028500B401047D0180027D00ED4E6024E4F51685
:10029500E516C39F501874402516F582E434E7F53A
:1002A50083E0FE74212516F8A606051680E20203F2
:1002B500A30204DD90E6B9E0700302037E14700327
:1002C5000203FB24FE700302047E24FB7003020379
:1002D500781470030203721470030203661470032A
:1002E50002036C240560030204E21209354003028F
:1002F50004EE90E6BBE024FE602D14603E24FD6014
:100305001414602D24067056E4F580E55790E6B385
:10031500F0E558803F120046500AE55F90E6B3F0DD
:10032500E56080300204DDE55990E6B3F0E55A80DA
:1003350023E55B90E6B3F0E55C801990E6BAE0FF53
:1003450012082BAA06A9077B01EA494B600DEE901E
:10035500E6B3F0EF90E6B4F00204EE0204DD020429
:10036500DD1209230204EE1206F70204EE1200F76D
:100375000204EE1209110204EE12095040030204B0
:10038500EE90E6B8E0247F601514601924027063CE
:10039500A200E43325E0FFA202E4334F8041E4905C
:1003A500E740F0803F90E6BCE0547EFF7E00E0D35E
:1003B50094807C0040047D0180027D00EC4EFEEDC2
:1003C5004F2440F58274093EF583E493FF3395E0AD
:1003D500FEEF24A1FFEE34E68F82F583E054019011
:1003E500E740F0E4A3F090E68AF090E68B7402F023
:1003F5000204EE0204DD12095240030204EE90E607
:10040500B8E024FE6016240260030204EE90E6BA0A
:10041500E0B40105C2000204EE0204DD90E6BAE094
:10042500705590E6BCE0547EFF7E00E0D394807C5E
:100435000040047D0180027D00EC4EFEED4F24401E
:10044500F58274093EF583E493FF3395E0FEEF24CE
:10045500A1FFEE34E68F82F583E054FEF090E6BC12
:10046500E05480131313541FFFE0540F2F90E683BD
:10047500F0E04420F08072805F120954506B90E6E2
:10048500B8E024FE60192402704E90E6BAE0B4018B
:1004950004D200805490E6BAE06402604C80399042
:1004A500E6BCE0547EFF7E00E0D394807C004004EF
:1004B5007D0180027D00EC4EFEED4F2440F58274F7
:1004C500093EF583E493FF3395E0FEEF24A1FFEEAB
:1004D50034E68F82F583800D90E6A08008120956D8
:1004E500500790E6A0E04401F090E6A0E04480F0DB
:0104F50022E4
:0300330002094A75
:04094A0053D8EF325D
:02005100D322B8
:02094E00D322B2
:0B09350075110075120090E6BBE02277
:0800F70090E6BAE0F513D322F4
:1009110090E740E513F0E490E68AF090E68B04F06E
:02092100D322DF
:0806F70090E6BAE0F510D322F1
:1009230090E740E510F0E490E68AF090E68B04F05F
:02093300D322CD
:02095000D322B0
:02095200D322AE
:02095400D322AC
:02095600D322AA
:1008B500C0E0C083C082D2015391EF90E65D740120
:0808C500F0D082D083D0E032B4
:1008E500C0E0C083C0825391EF90E65D7404F0D000
:0608F50082D083D0E03246
:1008FB00C0E0C083C0825391EF90E65D7402F0D0EC
:06090B0082D083D0E0322F
:1007F500C0E0C083C082855D59855E5A855A828571
:100805005983A37402F085555B85565C855C8285AA
:100815005B83A37407F05391EF90E65D7410F0D0FD
:0608250082D083D0E03216
:1008CD00C0E0C083C082D2035391EF90E65D7408FF
:0808DD00F0D082D083D0E0329C
:1007B800C0E0C083C08290E680E030E720855559CC
:1007C80085565A855A82855983A37402F0855D5BE4
:1007D800855E5C855C82855B83A37407F05391EF2B
:0D07E80090E65D7420F0D082D083D0E03226
:01003200329B
:01004200328B
:0100FF0032CE
:0106FF0032C8
:01095800326C
:01095900326B
:01095A00326A
:01095B003269
:01095C003268
:01095D003267
:01095E003266
:01095F003265
:010960003264
:010961003263
:010962003262
:010963003261
:010964003260
:01096500325F
:01096600325E
:01096700325D
:01096800325C
:01096900325B
:01096A00325A
:01096B003259
:01096C003258
:01096D003257
:01096E003256
:01096F003255
:010970003254
:010971003253
:010972003252
:010973003251
:010974003250
:01097500324F
:01097600324E
:01097700324D
:03004300020700B1
:03005300020700A1
:100700000208B5000208FB000208E5000208CD005F
:100710000207F5000207B8000200320002004200A2
:100720000200FF000206FF000209580002095900FA
:1007300002095A0002095B0002095C0002095D001F
:1007400002095E000200420002095F000209600027
:1007500002096100020962000209630002096400E3
:10076000020965000200420002004200020042004D
:1007700002096600020967000209680002096900AF
:1007800002096A0002096B0002096C0002096D008F
:1007900002096E0002096F0002097000020971006F
:1007A000020972000209730002097400020975004F
:0807B00002097600020977003E
:1006CB0090E682E030E004E020E60B90E682E0303A
:1006DB00E119E030E71590E680E04401F07F147EED
:0C06EB00001200B190E680E054FEF02206
:1008570090E682E044C0F090E681F0438701000013
:04086700000000226B
:1000030030040990E680E0440AF0800790E680E03F
:100013004408F07FDC7E051200B190E65D74FFF0CA
:0F00230090E65FF05391EF90E680E054F7F02203
:02082B00A9071B
:10082D00AE61AF628F828E83A3E064037017AD015A
:10083D0019ED7001228F828E83E07C002FFDEC3E3E
:09084D00FEAF0580DF7E007F0094
:01085600227F
:1000B1008E148F1590E600E054187012E515240196
:1000C100FFE43514C313F514EF13F515801590E60D
:1000D10000E05418FFBF100BE51525E0F515E514F8
:1000E10033F514E5151515AE14700215144E60059F
:0600F10012086B80EE22F4
:10086B007400F58690FDA57C05A3E582458370F9A0
:01087B00225A
:100100001201000200000040B404031000000102CC
:1001100000010A0600020000004001000902270059
:10012000010100A0320904000003FF0000000705E0
:100130000202000200070584020002000705860291
:1001400000020004030904100343007900700072E8
:10015000006500730073007C0345005A002D0055B4
:1001600000530042002000460058003200200047A3
:1001700000500049004600200074006F0020004538
:10018000007800740020004600490046004F00201F
:10019000004500780061006D0070006C0065002073
:1001A000007500730069006E00670020005300694D
:1001B000006E0067006C0065002000540072006152
:1001C000006E00730061006300740069006F006ED0
:0501D0000073000000B7
:03000000020036C5
:0C003600787FE4F6D8FD7581620204F6C4
:10087C007401FF3395E0FEFDFC080808E6CF2FF667
:10088C0018E6CE3EF618E6CD3DF618E6CC3CF62240
:00000001FF
