:0A093500000102020303040405059B
:1008A300E4750B40750A9CF509F508780874FF1286
:0808B3000885EC4D4E4F70F377
:0108BB00221A
:10054C00E4FBFAEB25E0FFEA33FE74002FF582742E
:10055C00403EF583EAF0A3EBF00BBB00010AE4B5D7
:10056C0003E1EAB440DDE4FAFBEB25E0FFEA33FEFD
:10057C0074002FF58274403EF583E0FEA3E06B70AF
:10058C0002EE6A60086390FF1208A380F80BBB00B0
:0A059C00010AE4B503D3EAB440CF2E
:0105A6002232
:10037700E4F50FF50EF50DF50CF521F522752301C2
:1003870075240175252A75262C75270AF528F52960
:10039700F52AF52BF52C752D3DF52EF52FF530F5B6
:1003A70031F532F533753460753509F536F537F5BE
:1003B70038F539F53AF53B753C6C753DDC753E0211
:1003C700F53F754002F541F542754301754408F55F
:1003D70045754601F547F548F549F54AF54BF54C9E
:1003E700F54DF54EF54FF550C203C200C202C201EA
:1003F70000000090E609F000000090E602F000001F
:100407000090E603F000000090E670E04480F00002
:10041700000090E60174E3F000000090E61274A279
:10042700F000000090E61474E2F000000090E6137C
:10043700F000000090E6157402F0000000000000D4
:1004470090E6047480F00000007402F0000000746D
:1004570004F00000007406F00000007408F00000CB
:1004670000E4F000000090E618F00000007410F0BF
:1004770000000090E619740CF000000090E61AF0F6
:1004870000000090E6207402F0000000E490E621EE
:10049700F000000090E6227402F0000000E490E60D
:1004A70023F000000090E6247402F0000000E490BE
:1004B700E625F000000075B5FF75B0FF75570675A6
:1004C7005800755F0675601275550675561C755D83
:1004D70006755EB37561067562B47551067552D5BA
:1004E700D2E843D82090E668E04409F090E65CE063
:1004F700443DF0D2AF90E680E020E105D20412003F
:100507000390E680E054F7F0538EF8C203C201303F
:100517000105120056C2013003F512005150F0C216
:10052700031206D720001690E682E030E704E020A9
:10053700E1EF90E682E030E604E020E0E412082BE9
:0505470012094F80CAFB
:0B004600900000E030E402C322D3224F
:1000560090E6B8E0B4A1047F0180027F0090E6B884
:10006600E0B421047E0180027E00EE4FFF90E6B8E8
:10007600E0B422047E0180027E00EE4FFF90E6B8D7
:10008600E0B4A2047E0180027E00EE4F70030201FE
:100096003A7F1A90E6B9E0B482047E0180027E00BF
:1000A60090E6B9E0B481047D0180027D00ED4EFE4C
:1000B60090E6B9E0B483047D0180027D00ED4E60D8
:1000C6002EE4F516E516C39F501874212516F8E69A
:1000D600FE74402516F582E434E7F583EEF0051646
:1000E60080E2E490E68AF090E68BEFF002036F90F0
:1000F600E6B9E0B486047E0180027E0090E6B9E0AF
:10010600B401047D0180027D00ED4E6024E4F51605
:10011600E516C39F501874402516F582E434E7F5BA
:1001260083E0FE74212516F8A606051680E2020273
:100136002402035E90E6B9E070030201FF14700327
:1001460002027C24FE70030202FF24FB70030201FC
:10015600F91470030201F31470030201E71470032B
:100166000201ED2405600302036312092A4003021B
:10017600036F90E6BBE024FE602D14603E24FD6014
:100186001414602D24067056E4F580E55790E6B306
:10019600F0E558803F120046500AE55F90E6B3F05E
:1001A600E560803002035EE55990E6B3F0E55A80DB
:1001B60023E55B90E6B3F0E55C801990E6BAE0FFD4
:1001C600120857AA06A9077B01EA494B600DEE9073
:1001D600E6B3F0EF90E6B4F002036F02035E0203AB
:1001E6005E12091802036F12094702036F12093FD4
:1001F60002036F1205ED02036F1209514003020359
:100206006F90E6B8E0247F601514601924027063CD
:10021600A200E43325E0FFA202E4334F8041E490DC
:10022600E740F0803F90E6BCE0547EFF7E00E0D3DE
:1002360094807C0040047D0180027D00EC4EFEED42
:100246004F2435F58274093EF583E493FF3395E038
:10025600FEEF24A1FFEE34E68F82F583E054019091
:10026600E740F0E4A3F090E68AF090E68B7402F0A3
:1002760002036F02035E120953400302036F90E606
:10028600B8E024FE60162402600302036F90E6BA0B
:10029600E0B40105C20002036F02035E90E6BAE015
:1002A600705590E6BCE0547EFF7E00E0D394807CDF
:1002B6000040047D0180027D00EC4EFEED4F2435AA
:1002C600F58274093EF583E493FF3395E0FEEF244F
:1002D600A1FFEE34E68F82F583E054FEF090E6BC93
:1002E600E05480131313541FFFE0540F2F90E6833E
:1002F600F0E04420F08072805F120955506B90E662
:10030600B8E024FE60192402704E90E6BAE0B4010B
:1003160004D200805490E6BAE06402604C803990C2
:10032600E6BCE0547EFF7E00E0D394807C0040046F
:100336007D0180027D00EC4EFEED4F2435F5827482
:10034600093EF583E493FF3395E0FEEF24A1FFEE2B
:1003560034E68F82F583800D90E6A0800812095757
:10036600500790E6A0E04401F090E6A0E04480F05B
:010376002264
:030033000206FCC6
:0406FC0053D8EF32AE
:02005100D322B8
:02094F00D322B1
:0B092A0075110075120090E6BBE02282
:08093F0090E6BAE0F513D322A3
:1005ED0090E740E513F0E490E68AF090E68B04F096
:0205FD00D32207
:0809470090E6BAE0F510D3229E
:1009180090E740E510F0E490E68AF090E68B04F06A
:02092800D322D8
:02095100D322AF
:02095300D322AD
:02095500D322AB
:02095700D322A9
:1008BC00C0E0C083C082D2015391EF90E65D740119
:0808CC00F0D082D083D0E032AD
:1008EC00C0E0C083C0825391EF90E65D7404F0D0F9
:0608FC0082D083D0E0323F
:10090200C0E0C083C0825391EF90E65D7402F0D0E4
:0609120082D083D0E03228
:1007F500C0E0C083C082855D59855E5A855A828571
:100805005983A37402F085555B85565C855C8285AA
:100815005B83A37407F05391EF90E65D7410F0D0FD
:0608250082D083D0E03216
:1008D400C0E0C083C082D2035391EF90E65D7408F8
:0808E400F0D082D083D0E03295
:1007B800C0E0C083C08290E680E030E720855559CC
:1007C80085565A855A82855983A37402F0855D5BE4
:1007D800855E5C855C82855B83A37407F05391EF2B
:0D07E80090E65D7420F0D082D083D0E03226
:01003200329B
:01004200328B
:0105FF0032C9
:01095900326B
:01095A00326A
:01095B003269
:01095C003268
:01095D003267
:01095E003266
:01095F003265
:010960003264
:010961003263
:010962003262
:010963003261
:010964003260
:01096500325F
:01096600325E
:01096700325D
:01096800325C
:01096900325B
:01096A00325A
:01096B003259
:01096C003258
:01096D003257
:01096E003256
:01096F003255
:010970003254
:010971003253
:010972003252
:010973003251
:010974003250
:01097500324F
:01097600324E
:01097700324D
:01097800324C
:01097900324B
:03004300020700B1
:03005300020700A1
:100700000208BC00020902000208EC000208D40042
:100710000207F5000207B8000200320002004200A2
:100720000205FF000209590002095A0002095B0094
:1007300002095C0002095D0002095E0002095F0017
:100740000209600002004200020961000209620021
:1007500002096300020964000209650002096600DB
:10076000020967000200420002004200020042004B
:10077000020968000209690002096A0002096B00A7
:1007800002096C0002096D0002096E0002096F0087
:100790000209700002097100020972000209730067
:1007A0000209740002097500020976000209770047
:0807B00002097800020979003A
:10082B0090E682E030E004E020E60B90E682E030D8
:10083B00E119E030E71590E680E04401F07F147E8B
:0C084B00001205A790E680E054FEF022A9
:1006D70090E682E044C0F090E681F0438701000095
:0406E70000000022ED
:1000030030040990E680E0440AF0800790E680E03F
:100013004408F07FDC7E051205A790E65D74FFF0CF
:0F00230090E65FF05391EF90E680E054F7F02203
:02085700A907EF
:10085900AE61AF628F828E83A3E064037017AD012E
:1008690019ED7001228F828E83E07C002FFDEC3E12
:09087900FEAF0580DF7E007F0068
:010882002253
:1005A7008E148F1590E600E054187012E51524019B
:1005B700FFE43514C313F514EF13F515801590E612
:1005C70000E05418FFBF100BE51525E0F515E514FD
:1005D70033F514E5151515AE14700215144E6005A4
:0605E7001206EB80EE227B
:1006EB007400F58690FDA57C05A3E582458370F922
:0106FB0022DC
:1006000012010002EF0201409AFB9AFB0100020175
:1006100000010A060002EF020140010009029600F3
:1006200002010080FA080B00020E0300000904001A
:1006300000000E0101000D240105011E0080C3C948
:100640000101010824020100020000092403020143
:100650000100010009040100000E0201000E240146
:1006600001190082000200000001000B24060101B4
:100670000101000000002624070102B000900000E4
:10068000EC0D0000EC0D00809400002A2C0A000004
:100690002A2C0A002A2C0A000000000006240D0063
:1006A000000009040101010E020100070588020093
:1006B00002010000040309041203480044004D0035
:1006C000490032005500530042000A034A0041002D
:0706D0004E0049000000008C
:03000000020036C5
:0C003600787FE4F6D8FD75816202037744
:100883007401FF3395E0FEFDFC080808E6CF2FF660
:1008930018E6CE3EF618E6CD3DF618E6CC3CF62239
:00000001FF
