:0A097500000102020303040405055B
:1008BF001A21000001010A8B020000000000000055
:0C08CF000000F00000800C00000200009F
:1008DC00E4750B40750A9CF509F508780874FF124D
:0808EC0008A1EC4D4E4F70F322
:0108F40022E1
:10074400E4FBFAEB25E0FFEA33FE74002FF5827434
:10075400403EF583EAF0A3EBF00BBB00010AE4B5DD
:1007640003E1EAB440DDE4FAFBEB25E0FFEA33FE03
:1007740074002FF58274403EF583E0FEA3E06B70B5
:1007840002EE6A60086390FF1208DC80F80BBB007D
:0A079400010AE4B503D3EAB440CF34
:01079E002238
:10036200E4F50FF50EF50DF50CC203C200C202C290
:100372000190E61274A2F000000090E61474E2F01C
:1003820000000090E613F000000090E6157402F001
:1003920000000090E60174E3F0000000E490E6093A
:1003A200F000000090E602F000000090E603F0008A
:1003B200000090E670E04480F00000000000009031
:1003C200E6047480F00000007402F000000074047F
:1003D200F00000007406F00000007408F000000055
:1003E200E4F000000090E6187410F000000090E6BF
:1003F20019740CF000000090E61AF0000000E4907E
:10040200E61BF000000090E6207402F0000000E419
:1004120090E621F000000090E6227402F000000055
:10042200E490E623F000000090E6247402F000005D
:1004320000E490E625F00000007541057542007564
:100442004905754A12753F0575401C754705754883
:10045200DA754B05754CDB753B05753CFCD2E84300
:10046200D82090E668E04409F090E65CE0443DF074
:10047200D2AF90E680E020E105D20412000390E6BC
:1004820080E054F7F0538EF8C203C2013001051226
:100492000056C2013003F512004150F0C2031208A7
:1004A2007A20001690E682E030E704E020E1EF9047
:1004B200E682E030E604E020E0E412082212005175
:0204C20080CAEE
:0B003600900000E030E402C322D3225F
:1000560090E6B8E0B4A1047F0180027F0090E6B884
:10006600E0B421047E0180027E00EE4FFF90E6B8E8
:10007600E0B422047E0180027E00EE4FFF90E6B8D7
:10008600E0B4A2047E0180027E00EE4F70030201FE
:10009600287F1A90E6B9E0B482047E0180027E00D1
:1000A60090E6B9E0B481047D0180027D00ED4EFE4C
:1000B60090E6B9E0B483047D0180027D00ED4E60D8
:1000C6002CE4FEEF14FDEEC39D501574212EF8E6C8
:1000D600FD74402EF582E434E7F583EDF00E80E3FF
:1000E600E490E68AF090E68BEFF002035AE490E69D
:1000F6008AF090E68BF000000090E6047480F00031
:1001060000007402F00000007404F00000007406A1
:10011600F00000007408F0000000E4F000000002A7
:10012600035A90E6B9E070030201EA147003020272
:100136006724FE70030202EA24FB70030201E41442
:1001460070030201DE1470030201D214700302016F
:10015600D82405600302034E120046400302035AE8
:1001660090E6BBE024FE602A14603B24FD60141474
:10017600602A24067053E4F580E54190E6B3F0E585
:1001860042803C120036503EE54990E6B3F0E54A1F
:10019600802DE54390E6B3F0E5448023E54590E6FF
:1001A600B3F0E546801990E6BAE0FF12084EAA06BB
:1001B600A9077B01EA494B600DEE90E6B3F0EF909C
:1001C600E6B4F002035A0203490203491209630224
:1001D600035A12098702035A12097F02035A1209A7
:1001E6005102035A1204FE400302035A90E6B8E095
:1001F600247F601514601924027063A200E433257D
:10020600E0FFA202E4334F8041E490E740F0803FF4
:1002160090E6BCE0547EFF7E00E0D394807C0040F4
:10022600047D0180027D00EC4EFEED4F2475F582C3
:1002360074093EF583E493FF3395E0FEEF24A1FFB6
:10024600EE34E68F82F583E0540190E740F0E4A3B4
:10025600F090E68AF090E68B7402F002035A0203ED
:10026600491205FE400302035A90E6B8E024FE60F8
:10027600162402600302035A90E6BAE0B40105C2EE
:100286000002035A02034990E6BAE0705590E6BCB4
:10029600E0547EFF7E00E0D394807C0040047D0124
:1002A60080027D00EC4EFEED4F2475F58274093E0A
:1002B600F583E493FF3395E0FEEF24A1FFEE34E6E9
:1002C6008F82F583E054FEF090E6BCE05480131371
:1002D60013541FFFE0540F2F90E683F0E04420F004
:1002E6008072805F12098F506B90E6B8E024FE6042
:1002F600192402704E90E6BAE0B40104D20080548C
:1003060090E6BAE06402604C803990E6BCE0547E28
:10031600FF7E00E0D394807C0040047D0180027D56
:1003260000EC4EFEED4F2475F58274093EF583E42C
:1003360093FF3395E0FEEF24A1FFEE34E68F82F5BE
:1003460083800D90E6A08008120991500790E6A0E0
:0B035600E04401F090E6A0E04480F0DD
:010361002279
:030033000204FACA
:0404FA0053D8EF32B2
:02004100D322C8
:02005100D322B8
:0B00460075110075120090E6BBE0226F
:08097F0090E6BAE0F513D32263
:1009510090E740E513F0E490E68AF090E68B04F02E
:02096100D3229F
:0809870090E6BAE0F510D3225E
:1009630090E740E510F0E490E68AF090E68B04F01F
:02097300D3228D
:0204FE00D32207
:0205FE00D32206
:02098F00D32271
:02099100D3226F
:1008F500C0E0C083C082D2015391EF90E65D7401E0
:08090500F0D082D083D0E03273
:10092500C0E0C083C0825391EF90E65D7404F0D0BF
:0609350082D083D0E03205
:10093B00C0E0C083C0825391EF90E65D7402F0D0AB
:06094B0082D083D0E032EF
:1004C400C0E0C083C0828547438548448544828513
:1004D4004383A37402F0853F458540468546828563
:1004E4004583A37407F05391EF90E65D7410F0D048
:0604F40082D083D0E0324B
:10090D00C0E0C083C082D2035391EF90E65D7408BE
:08091D00F0D082D083D0E0325B
:1007E500C0E0C083C08290E680E030E720853F43CB
:1007F500854044854482854383A37402F08547453B
:10080500854846854682854583A37407F05391EF55
:0D08150090E65D7420F0D082D083D0E032F8
:01003200329B
:010993003231
:010994003230
:01099500322F
:01099600322E
:01099700322D
:01099800322C
:01099900322B
:01099A00322A
:01099B003229
:01099C003228
:01099D003227
:01099E003226
:01099F003225
:0109A0003224
:0109A1003223
:0109A2003222
:0109A3003221
:0109A4003220
:0109A500321F
:0109A600321E
:0109A700321D
:0109A800321C
:0109A900321B
:0109AA00321A
:0109AB003219
:0109AC003218
:0109AD003217
:0109AE003216
:0109AF003215
:0109B0003214
:0109B1003213
:0109B2003212
:0109B3003211
:0109B4003210
:0109B500320F
:03004300020600B2
:03005300020600A2
:100600000208F50002093B000209250002090D005D
:100610000204C4000207E500020032000209930050
:100620000209940002099500020996000209970048
:10063000020998000209990002099A0002099B0028
:1006400002099C000209930002099D0002099E0014
:1006500002099F000209A0000209A1000209A200EC
:100660000209A30002099300020993000209930002
:100670000209A4000209A5000209A6000209A700B8
:100680000209A8000209A9000209AA000209AB0098
:100690000209AC000209AD000209AE000209AF0078
:1006A0000209B0000209B1000209B2000209B30058
:0806B0000209B4000209B500C3
:1008220090E682E030E004E020E60B90E682E030E1
:10083200E119E030E71590E680E04401F07F147E94
:0C0842000012079F90E680E054FEF022B8
:10087A0090E682E044C0F090E681F04387010000F0
:04088A000000002248
:1000030030040990E680E0440AF0800790E680E03F
:100013004408F07FDC7E0512079F90E65D74FFF0D5
:0F00230090E65FF05391EF90E680E054F7F02203
:02084E00A907F8
:10085000AE4BAF4C8F828E83A3E064037017AD0163
:1008600019ED7001228F828E83E07C002FFDEC3E1B
:09087000FEAF0580DF7E007F0071
:01087900225C
:10079F008E148F1590E600E054187012E5152401A1
:1007AF00FFE43514C313F514EF13F515801590E618
:1007BF0000E05418FFBF100BE51525E0F515E51403
:1007CF0033F514E5151515AE14700215144E6005AA
:0607DF0012088E80EE22DC
:10088E007400F58690FDA57C05A3E582458370F97D
:01089E002237
:1005000012010002EF0201409AFB9AFB0100020176
:1005100000010A060002EF02014001000902BD00CD
:1005200002010080FA080B00020E0300000904001B
:1005300000010E0100000D240100015000006CDCE0
:10054000020101122402010102000000000000006B
:1005500000030000000C240502010040030000001D
:10056000001C240603FFFFFFFFFFFFFFFFFFFFFF4D
:10057000FFFFFFFFFF00010203000000000924034A
:10058000040101000300070581034000080525035D
:10059000400009040100010E020000070586020068
:1005A00002000E240101190086000401010001006F
:1005B0000B240601010101000000001E24070100B8
:1005C0000004000300C05D0000C05D000058020090
:1005D0002A2C0A00012A2C0A000000040309041234
:1005E00003480044004D00490032005500530042CA
:0E05F000000A034A0041004E004900000000CE
:030000000206B83D
:0C06B800787FE4F6D8FD75814C0206FF47
:10089F007401FF3395E0FEFDFC080808E6CF2FF644
:1008AF0018E6CE3EF618E6CD3DF618E6CC3CF6221D
:1006C400020362E493A3F8E493A34003F68001F2E7
:1006D40008DFF48029E493A3F85407240CC8C33337
:1006E400C4540F4420C8834004F456800146F6DF06
:1006F400E4800B01020408102040809008BFE47ECF
:10070400019360BCA3FF543F30E509541FFEE493FA
:10071400A360010ECF54C025E060A840B8E493A3C1
:10072400FAE493A3F8E493A3C8C582C8CAC583CAEC
:10073400F0A3C8C582C8CAC583CADFE9DEE780BEA4
:0108DB00001C
:00000001FF
