:0A0A1F0000010202030304040505B0
:100969001A21010001012A2C0A00010001000000DE
:0C097900F00002000000900000020000EE
:10098600E4750B40750A9CF509F508780874FF12A2
:08099600094BEC4D4E4F70F3CC
:01099E002236
:1007B800E4FBFAEB25E0FFEA33FE74002FF58274C0
:1007C800403EF583EAF0A3EBF00BBB00010AE4B569
:1007D80003E1EAB440DDE4FAFBEB25E0FFEA33FE8F
:1007E80074002FF58274403EF583E0FEA3E06B7041
:1007F80002EE6A60086390FF12098680F80BBB005E
:0A080800010AE4B503D3EAB440CFBF
:0108120022C3
:1003DD00E4F50FF50EF50DF50CC203C200C202C215
:1003ED000190E61274A2F000000090E61474D2F0B1
:1003FD0000000090E61374E2F000000090E6157422
:10040D0002F000000090E60174E3F0000000E490BB
:10041D00E609F000000090E602F000000090E6030F
:10042D00F000000090E670E04480F0000000000055
:10043D000090E6047480F00000007402F0000000EB
:10044D007404F00000007406F00000007408F00061
:10045D000000E4F000000090E6187410F0000000B9
:10046D0090E619740CF000000090E61AF000000000
:10047D00E490E61BF000000090E6207402F000000E
:10048D0000E490E621F000000090E6227402F000F6
:10049D000000E490E623F000000090E6247402F0E2
:1004AD00000000E490E625F000000075410675425D
:1004BD0000754906754A12753F0675401C7547064D
:1004CD007548D7754B06754CD8753B06753CF9D2FA
:1004DD00E843D82090E668E04409F090E65CE044FB
:1004ED003DF0D2AF90E680E020E105D2041200038A
:1004FD0090E680E054F7F0538EF8C203C20130014C
:10050D0005120056C2013003F512005150F0C2031E
:10051D0012092420001690E682E030E704E020E185
:10052D00EF90E682E030E604E020E0E41208CC1221
:04053D0005FE80CA6D
:0B004600900000E030E402C322D3224F
:1000560090E6B8E0B4A1047F0180027F0090E6B884
:10006600E0B421047E0180027E00EE4FFF90E6B8E8
:10007600E0B422047E0180027E00EE4FFF90E6B8D7
:10008600E0B4A2047E0180027E00EE4F70030201FE
:10009600287F1A90E6B9E0B482047E0180027E00D1
:1000A60090E6B9E0B481047D0180027D00ED4EFE4C
:1000B60090E6B9E0B483047D0180027D00ED4E60D8
:1000C6002CE4FEEF14FDEEC39D501574212EF8E6C8
:1000D600FD74402EF582E434E7F583EDF00E80E3FF
:1000E600E490E68AF090E68BEFF00203D5E490E622
:1000F6008AF090E68BF000000090E6047480F00031
:1001060000007402F00000007404F00000007406A1
:10011600F00000007408F0000000E4F000000002A7
:1001260003D590E6B9E070030202151470030202CB
:10013600BE24FE700302035424FB700302020F1454
:1001460070030202091470030201FD147003020217
:1001560003240560030203C912003640030203D5D7
:1001660090E6BBE024FE603E14605924FD6019143D
:10017600604324067077E4F580E54190E6B3F0E548
:100186004290E6B4F00203D5120046500FE54990BE
:10019600E6B3F0E54A90E6B4F00203D590E6A0E0B7
:1001A6004401F00203D5E54390E6B3F0E54490E65A
:1001B600B4F00203D5E54590E6B3F0E54690E6B423
:1001C600F00203D590E6BAE0FF1208F8AA06A907DE
:1001D6007B01EA49600DEE90E6B3F0EF90E6B4F0ED
:1001E6000203D590E6A0E04401F00203D590E6A014
:1001F600E04401F00203D5120A0D0203D51205CD23
:100206000203D5120A290203D51209FB0203D512ED
:100216000A3140030203D590E6B8E0247F602B1430
:10022600603C240260030202B4A200E433FF25E02E
:10023600FFA202E4334F90E740F0E4A3F090E68A91
:10024600F090E68B7402F00203D5E490E740F0A349
:10025600F090E68AF090E68B7402F00203D590E601
:10026600BCE0547EFF7E00E0D3948040067C007D97
:100276000180047C007D00EC4EFEED4F241FF582CC
:10028600740A3EF583E493FF3395E0FEEF24A1FF65
:10029600EE34E68F82F583E0540190E740F0E4A364
:1002A600F090E68AF090E68B7402F00203D590E6B1
:1002B600A0E04401F00203D5120A3340030203D53D
:1002C60090E6B8E024FE601D240260030203D59088
:1002D600E6BAE0B40105C2000203D590E6A0E04408
:1002E60001F00203D590E6BAE0705990E6BCE054FE
:1002F6007EFF7E00E0D3948040067C007D01800472
:100306007C007D00EC4EFEED4F241FF582740A3E04
:10031600F583E493FF3395E0FEEF24A1FFEE34E688
:100326008F82F583E054FEF090E6BCE05480FF1324
:100336001313541FFFE0540F2F90E683F0E0442080
:10034600F00203D590E6A0E04401F00203D5120ABC
:1003560035507C90E6B8E024FE60202402705B9065
:10036600E6BAE0B40104D200806590E6BAE0640221
:10037600605D90E6A0E04401F0805490E6BCE05455
:100386007EFF7E00E0D3948040067C007D018004E1
:100396007C007D00EC4EFEED4F241FF582740A3E74
:1003A600F583E493FF3395E0FEEF24A1FFEE34E6F8
:1003B6008F82F583E04401F0801590E6A0E04401C9
:1003C600F0800C120A37500790E6A0E04401F09046
:0603D600E6A0E04480F007
:0103DC0022FE
:030033000206FBC7
:0406FB0053D8EF32AF
:02005100D322B8
:0205FE00D32206
:0C00360075110075120090E6BBE0FF227F
:080A290090E6BAE0F513D322B8
:1009FB0090E740E513F0E490E68AF090E68B04F084
:020A0B00D322F4
:1005CD0090E6BAE0F51000000090E6047480F000AB
:1005DD0000007402F00000007404F00000007406C6
:1005ED00F00000007408F0000000E4F0000000D3FB
:0105FD0022DB
:100A0D0090E740E510F0E490E68AF090E68B04F074
:020A1D00D322E2
:020A3100D322CE
:020A3300D322CC
:020A3500D322CA
:020A3700D322C8
:10099F00C0E0C083C082D2015391EF90E65D740135
:0809AF00F0D082D083D0E032C9
:1009CF00C0E0C083C0825391EF90E65D7404F0D015
:0609DF0082D083D0E0325B
:1009E500C0E0C083C0825391EF90E65D7402F0D001
:0609F50082D083D0E03245
:10089600C0E0C083C082854743854844854482853D
:1008A6004383A37402F0853F45854046854682858D
:1008B6004583A37407F05391EF90E65D7410F0D072
:0608C60082D083D0E03275
:1009B700C0E0C083C082D2035391EF90E65D740814
:0809C700F0D082D083D0E032B1
:10085900C0E0C083C08290E680E030E720853F4356
:10086900854044854482854383A37402F0854745C6
:10087900854846854682854583A37407F05391EFE1
:0D08890090E65D7420F0D082D083D0E03284
:01003200329B
:01004200328B
:0106FF0032C8
:010A3900328A
:010A3A003289
:010A3B003288
:010A3C003287
:010A3D003286
:010A3E003285
:010A3F003284
:010A40003283
:010A41003282
:010A42003281
:010A43003280
:010A4400327F
:010A4500327E
:010A4600327D
:010A4700327C
:010A4800327B
:010A4900327A
:010A4A003279
:010A4B003278
:010A4C003277
:010A4D003276
:010A4E003275
:010A4F003274
:010A50003273
:010A51003272
:010A52003271
:010A53003270
:010A5400326F
:010A5500326E
:010A5600326D
:010A5700326C
:010A5800326B
:010A5900326A
:03004300020700B1
:03005300020700A1
:1007000002099F000209E5000209CF000209B700B3
:10071000020896000208590002003200020042005E
:100720000206FF00020A3900020A3A00020A3B00F0
:10073000020A3C00020A3D00020A3E00020A3F0093
:10074000020A400002004200020A4100020A42007E
:10075000020A4300020A4400020A4500020A460057
:10076000020A47000200420002004200020042006A
:10077000020A4800020A4900020A4A00020A4B0023
:10078000020A4C00020A4D00020A4E00020A4F0003
:10079000020A5000020A5100020A5200020A5300E3
:1007A000020A5400020A5500020A5600020A5700C3
:0807B000020A5800020A590078
:1008CC0090E682E030E004E020E60B90E682E03037
:1008DC00E119E030E71590E680E04401F07F147EEA
:0C08EC000012081390E680E054FEF02299
:1009240090E682E044C0F090E681F0438701000045
:04093400000000229D
:1000030030040990E680E0440AF0800790E680E03F
:100013004408F07FDC7E0512081390E65D74FFF060
:0F00230090E65FF05391EF90E680E054F7F02203
:0208F800A9074E
:1008FA00AE4BAF4C8F828E83A3E064037017AD01B9
:10090A0019ED7001228F828E83E07C002FFDEC3E70
:09091A00FEAF0580DF7E007F00C6
:0109230022B1
:100813008E148F1590E600E054187012E51524012C
:10082300FFE43514C313F514EF13F515801590E6A3
:1008330000E05418FFBF100BE51525E0F515E5148E
:1008430033F514E5151515AE14700215144E600535
:0608530012093880EE22BC
:100938007400F58690FDA57C05A3E582458370F9D2
:01094800228C
:1006000012010002EF0201409AFB9AFB0100020175
:1006100000010A060002EF02014001000902BA00CF
:1006200002010080FA080B00020E0300000904001A
:1006300000000E0100000D240100015000006CDCE0
:10064000020101122402010102000000000000006A
:1006500000030000000C240502010040030000001C
:10066000001C240603FFFFFFFFFFFFFFFFFFFFFF4C
:10067000FFFFFFFFFF000102030000000009240349
:1006800004010100030009040100000E0200000E35
:10069000240101370086000401010001000B24063B
:1006A00001010101000000001E24070102000400F6
:1006B00003000070080000A80C000048002A2C0A63
:1006C00000012A2C0A0009040101010E02000007A2
:1006D000058601000201000004030904120348001A
:1006E00044004D00490032005500530042000A0307
:0B06F0004A0041004E004900000000DD
:03000000020541B5
:0C054100787FE4F6D8FD75814C02058837
:100949007401FF3395E0FEFDFC080808E6CF2FF699
:1009590018E6CE3EF618E6CD3DF618E6CC3CF62272
:10054D000203DDE493A3F8E493A34003F68001F2E4
:10055D0008DFF48029E493A3F85407240CC8C333AF
:10056D00C4540F4420C8834004F456800146F6DF7E
:10057D00E4800B0102040810204080900969E47E9C
:10058D00019360BCA3FF543F30E509541FFEE49373
:10059D00A360010ECF54C025E060A840B8E493A33A
:1005AD00FAE493A3F8E493A3C8C582C8CAC583CA65
:1005BD00F0A3C8C582C8CAC583CADFE9DEE780BE1D
:010985000071
:00000001FF
