:0A06F20000010202030304040505E1
:1000E2001A21000001010A8B02000000000000003A
:0C00F2000000F0000040060000020000CA
:10088B00E4750B40750A9CF509F508780874FF129E
:08089B00086DEC4D4E4F70F3A7
:0108A3002232
:10061400E4FBFAEB25E0FFEA33FE74002FF5827465
:10062400403EF583EAF0A3EBF00BBB00010AE4B50E
:1006340003E1EAB440DDE4FAFBEB25E0FFEA33FE34
:1006440074002FF58274403EF583E0FEA3E06B70E6
:1006540002EE6A60086390FF12088B80F80BBB00FF
:0A066400010AE4B503D3EAB440CF65
:01066E002269
:1004B500E4F50FF50EF50DF50CC203C200C202C23C
:1004C5000190E60174E3F000000090E61274A2F0DA
:1004D50000000090E61474E2F000000090E613F0CE
:1004E50000000090E6157402F0000000E490E609B3
:1004F500F000000090E602F000000090E603F00036
:10050500000090E670E04480F000000090E604747E
:1005150080F00000007402F00000007404F0000098
:10052500007406F00000007408F0000000E4F0001C
:10053500000090E6187410F000000090E619740CA5
:10054500F000000090E61AF0000000E490E61BF0D1
:1005550000000090E6207402F0000000E490E6211F
:10056500F000000090E6227402F0000000E490E63E
:1005750023F000000090E6247402F0000000E490EF
:10058500E625F000000075410175420075490175C9
:100595004A12753F0175401C754701754843754BF7
:1005A50001754C43753B01753CD3D2E843D8209087
:1005B500E668E04409F090E65CE0443DF0D2AF9097
:1005C500E680E020E105D20412000390E680E054C5
:1005D500F7F0538EF8C203C2013001051201D5C2EE
:1005E500013003F512004150F0C203120846200005
:1005F5001690E682E030E704E020E1EF90E682E045
:0F06050030E604E020E0E41207EE12005180CA54
:0B003600900000E030E402C322D3225F
:1001D50090E6B8E0B4A1047F0180027F0090E6B804
:1001E500E0B421047E0180027E00EE4FFF90E6B868
:1001F500E0B422047E0180027E00EE4FFF90E6B857
:10020500E0B4A2047E0180027E00EE4F60687F1A92
:1002150090E6B9E0B482047E0180027E0090E6B9E2
:10022500E0B481047D0180027D00ED4EFE90E6B9CB
:10023500E0B483047D0180027D00ED4E602CE4FE78
:10024500EF14FDEEC39D501574212EF8E6FD7440A4
:100255002EF582E434E7F583EDF00E80E3E490E6D5
:100265008AF090E68BEFF00204ADE490E68AF09018
:10027500E68BF00204AD90E6B9E0700302033D148D
:1002850070030203BA24FE700302043D24FB7003CD
:10029500020337147003020331147003020325149B
:1002A500700302032B240560030204A112004640DB
:1002B500030204AD90E6BBE024FE602A14603B24F3
:1002C500FD601414602A24067053E4F580E541901E
:1002D500E6B3F0E542803C120036503EE54990E633
:1002E500B3F0E54A802DE54390E6B3F0E54480237D
:1002F500E54590E6B3F0E546801990E6BAE0FF12D1
:10030500081AAA06A9077B01EA494B600DEE90E69B
:10031500B3F0EF90E6B4F00204AD02049C02049C35
:100325001209120204AD12092C0204AD12092402AD
:1003350004AD1209000204AD12093440030204ADF4
:1003450090E6B8E0247F601514601924027063A25A
:1003550000E43325E0FFA202E4334F8041E490E757
:1003650040F0803F90E6BCE0547EFF7E00E0D394F1
:10037500807C0040047D0180027D00EC4EFEED4F47
:1003850024F2F58274063EF583E493FF3395E0FE8F
:10039500EF24A1FFEE34E68F82F583E0540190E768
:1003A50040F0E4A3F090E68AF090E68B7402F00248
:1003B50004AD02049C12093640030204AD90E6B870
:1003C500E024FE6016240260030204AD90E6BAE064
:1003D500B40105C2000204AD02049C90E6BAE070C7
:1003E5005590E6BCE0547EFF7E00E0D394807C000F
:1003F50040047D0180027D00EC4EFEED4F24F2F5B8
:100405008274063EF583E493FF3395E0FEEF24A165
:10041500FFEE34E68F82F583E054FEF090E6BCE013
:100425005480131313541FFFE0540F2F90E683F0ED
:10043500E04420F08072805F120938506B90E6B876
:10044500E024FE60192402704E90E6BAE0B401047F
:10045500D200805490E6BAE06402604C803990E6A0
:10046500BCE0547EFF7E00E0D394807C0040047D98
:100475000180027D00EC4EFEED4F24F2F5827406FC
:100485003EF583E493FF3395E0FEEF24A1FFEE34C0
:10049500E68F82F583800D90E6A0800812093A5018
:0F04A5000790E6A0E04401F090E6A0E04480F06C
:0104B4002225
:030033000206FCC6
:0406FC0053D8EF32AE
:02004100D322C8
:02005100D322B8
:0B00460075110075120090E6BBE0226F
:0809240090E6BAE0F513D322BE
:1009000090E740E513F0E490E68AF090E68B04F07F
:02091000D322F0
:08092C0090E6BAE0F510D322B9
:1009120090E740E510F0E490E68AF090E68B04F070
:02092200D322DE
:02093400D322CC
:02093600D322CA
:02093800D322C8
:02093A00D322C6
:1008A400C0E0C083C082D2015391EF90E65D740131
:0808B400F0D082D083D0E032C5
:1008D400C0E0C083C0825391EF90E65D7404F0D011
:0608E40082D083D0E03257
:1008EA00C0E0C083C0825391EF90E65D7402F0D0FD
:0608FA0082D083D0E03241
:1007B800C0E0C083C082854743854844854482851C
:1007C8004383A37402F0853F45854046854682856C
:1007D8004583A37407F05391EF90E65D7410F0D051
:0607E80082D083D0E03254
:1008BC00C0E0C083C082D2035391EF90E65D740810
:0808CC00F0D082D083D0E032AD
:1006B500C0E0C083C08290E680E030E720853F43FC
:1006C500854044854482854383A37402F08547456C
:1006D500854846854682854583A37407F05391EF87
:0D06E50090E65D7420F0D082D083D0E0322A
:01003200329B
:0100FF0032CE
:01093C003288
:01093D003287
:01093E003286
:01093F003285
:010940003284
:010941003283
:010942003282
:010943003281
:010944003280
:01094500327F
:01094600327E
:01094700327D
:01094800327C
:01094900327B
:01094A00327A
:01094B003279
:01094C003278
:01094D003277
:01094E003276
:01094F003275
:010950003274
:010951003273
:010952003272
:010953003271
:010954003270
:01095500326F
:01095600326E
:01095700326D
:01095800326C
:01095900326B
:01095A00326A
:01095B003269
:01095C003268
:01095D003267
:03004300020700B1
:03005300020700A1
:100700000208A4000208EA000208D4000208BC00A3
:100710000207B8000206B500020032000200FF0026
:1007200002093C0002093D0002093E0002093F00A7
:100730000209400002094100020942000209430087
:10074000020944000200FF000209450002094600B8
:1007500002094700020948000209490002094A004B
:1007600002094B000200FF000200FF000200FF0030
:1007700002094C0002094D0002094E0002094F0017
:1007800002095000020951000209520002095300F7
:1007900002095400020955000209560002095700D7
:1007A000020958000209590002095A0002095B00B7
:0807B00002095C0002095D0072
:1007EE0090E682E030E004E020E60B90E682E03016
:1007FE00E119E030E71590E680E04401F07F147EC9
:0C080E000012066F90E680E054FEF0221D
:1008460090E682E044C0F090E681F0438701000024
:04085600000000227C
:1000030030040990E680E0440AF0800790E680E03F
:100013004408F07FDC7E0512066F90E65D74FFF006
:0F00230090E65FF05391EF90E680E054F7F02203
:02081A00A9072C
:10081C00AE4BAF4C8F828E83A3E064037017AD0197
:10082C0019ED7001228F828E83E07C002FFDEC3E4F
:09083C00FEAF0580DF7E007F00A5
:010845002290
:10066F008E148F1590E600E054187012E5152401D2
:10067F00FFE43514C313F514EF13F515801590E649
:10068F0000E05418FFBF100BE51525E0F515E51434
:10069F0033F514E5151515AE14700215144E6005DB
:0606AF0012085A80EE2241
:10085A007400F58690FDA57C05A3E582458370F9B1
:01086A00226B
:100100001201000200000040B404031000000102CC
:1001100000010A0600020000004001000902270059
:10012000010100A0320904000003FF0000000705E0
:100130000202000200070584020002000705860291
:1001400000020004030904100343007900700072E8
:10015000006500730073007C0345005A002D0055B4
:1001600000530042002000460058003200200047A3
:1001700000500049004600200074006F0020004538
:10018000007800740020004600490046004F00201F
:10019000004500780061006D0070006C0065002073
:1001A000007500730069006E00670020005300694D
:1001B000006E0067006C0065002000540072006152
:1001C000006E00730061006300740069006F006ED0
:0501D0000073000000B7
:03000000020056A5
:0C005600787FE4F6D8FD75814C02009D17
:10086B007401FF3395E0FEFDFC080808E6CF2FF678
:10087B0018E6CE3EF618E6CD3DF618E6CC3CF62251
:100062000204B5E493A3F8E493A34003F68001F2FB
:1000720008DFF48029E493A3F85407240CC8C3339F
:10008200C4540F4420C8834004F456800146F6DF6E
:10009200E4800B01020408102040809000E2E47E1C
:1000A200019360BCA3FF543F30E509541FFEE49363
:1000B200A360010ECF54C025E060A840B8E493A32A
:1000C200FAE493A3F8E493A3C8C582C8CAC583CA55
:1000D200F0A3C8C582C8CAC583CADFE9DEE780BE0D
:0100FE000001
:00000001FF
