:100A5000471000600900000000081A210100010190
:100A60002A2C0A00010001000000F0000200000032
:060A7000900000020000EE
:10036300E4F513F512F511F510C203C200C202C27F
:10037300011205267E067F008E3E8F3F7548067567
:100383004912753C06753D1C754407754519754A38
:1003930007754B1A90E680E030E70E853C40853DBB
:1003A30041854442854543800C85444085454185CC
:1003B3003C42853D43EE54E070030204CE751400C5
:1003C3007515807E067F008E168F17C3743B9FFFC3
:1003D30074079ECF2402CF3400FEE48F0F8E0EF5F8
:1003E3000DF50CF50BF50AF509F508AF0FAE0EADDB
:1003F3000DAC0CAB0BAA0AA909A808C31209355006
:1004030026E515250BF582E514350AF58374CDF041
:10041300E50B2401F50BE4350AF50AE43509F50982
:10042300E43508F50880C4E4F50BF50AF509F50889
:10043300AF0FAE0EAD0DAC0CAB0BAA0AA909A80801
:10044300C31209355033E517250BF582E516350A36
:10045300F583E0FFE515250BF582E514350AF583F1
:10046300EFF0E50B2401F50BE4350AF50AE4350951
:10047300F509E43508F50880B785143E85153F7402
:10048300002480FF740634FFFEC3E5499FF549E568
:10049300489EF548C3E5419FF541E5409EF540C3BD
:1004A300E5439FF543E5429EF542C3E53D9FF53D98
:1004B300E53C9EF53CC3E5459FF545E5449EF54483
:1004C300C3E54B9FF54BE54A9EF54AD2E843D82056
:1004D30090E668E04409F090E65CE0443DF0D2AF7A
:1004E300D20412099D538EF8C20330010512008015
:1004F300C2013003291205FD5024C203120A7720DA
:10050300001690E682E030E704E020E1EF90E68217
:10051300E030E604E020E0E41209CC120B1C120ADE
:030523002480C76A
:1000800090E6B8E0B4A1047F0180027F0090E6B85A
:10009000E0B421047E0180027E00EE4FFF90E6B8BE
:1000A000E0B422047E0180027E00EE4FFF90E6B8AD
:1000B000E0B4A2047E0180027E00EE4F70030201D4
:1000C0005990E6B9E0B482047F0180027F0090E697
:1000D000B9E0B481047E0180027E00EE4FFF90E61D
:1000E000B9E0B483047E0180027E00EE4F6035E407
:1000F000F546F547AF4774212FF8E6FE74402FF51B
:1001000082E434E7F583EEF00547E54770020546E3
:10011000641A454670DEE490E68AF090E68B741A25
:10012000F002035BE490E68AF090E68BF0000000BA
:1001300090E6047480F00000007402F00000007487
:1001400004F00000007406F00000007408F00000E5
:1001500000E4F000000002035B90E6B9E0120946FB
:1001600002C400030901032F03023D0602BE080278
:10017000B80902AC0A02B20B01852001DE21035B43
:10018000220000034F753B07C2E890E6B57401F00A
:10019000E490E68BF090E6B5F0D2E890E68BE0B51F
:1001A0003BF9000000E4F546F547C3E547953B748D
:1001B00080F8654698400302035BAF4774402FF513
:1001C00082E434E7F583E0FE74002FF582E4341016
:1001D000F583EEF00547E54770D0054680CC90E604
:1001E000B57401F0753B07E4F546F547C3E547955F
:1001F0003B7480F86546985024AF4774002FF58211
:10020000E43410F583E0FE74402FF582E434E7F522
:1002100083EEF00547E54770D3054680CFE490E6CE
:100220008AF000000090E68BE53BF000000090E6CD
:10023000A0E020E1F9E490E6B5F002035B90E6B5BA
:100240007401F0120B1E400302035B90E6BBE02436
:10025000FE602214603324FD6011146022240670B5
:1002600048E53E90E6B3F0E53F8037E54890E6B3D9
:10027000F0E549802DE54090E6B3F0E5418023E5C7
:100280004290E6B3F0E543801990E6BAE0FF120928
:10029000F8AA06A9077B01EA494B600DEE90E6B388
:1002A000F0EF90E6B4F002035B020354120B0A0273
:1002B000035B12096C02035B1205F102035B120A75
:1002C000F802035B120B20400302035B90E6B8E0E8
:1002D000247F601A14601F2402702CA200E43325CE
:1002E000E0FFA202E4334F90E740F0E48005E490A1
:1002F000E740F0A38004E490E741F090E68AF090B4
:10030000E68B7402F08054804B120B22504D90E625
:10031000B8E024FE60112402704190E6BAE0B40116
:1003200004C2008036802D90E6BAE0602E8025124F
:100330000B24502790E6B8E024FE60112402701BC5
:1003400090E6BAE0B40104D2008010800780051264
:100350000B26500790E6A0E04401F090E6A0E044B0
:0203600080F02B
:010362002278
:030033000205F9CA
:0405F90053D8EF32B2
:03004300020800B0
:03005300020800A0
:10080000020A9C00020AE200020ACC00020AB400BA
:100810000207C9000208FE000205FF00020B2800C3
:10082000020B2900020B2A00020B2B00020B2C00EA
:10083000020B2D00020B2E00020B2F00020B3000CA
:10084000020B3100020B2800020B3200020B3300B6
:10085000020B3400020B3500020B3600020B37008E
:10086000020B3800020B2800020B2800020B2800A4
:10087000020B3900020B3A00020B3B00020B3C005A
:10088000020B3D00020B3E00020B3F00020B40003A
:10089000020B4100020B4200020B4300020B44001A
:1008A000020B4500020B4600020B4700020B4800FA
:0808B000020B4900020B4A0093
:1009CC0090E682E030E004E020E60B90E682E03036
:1009DC00E119E030E71590E680E04401F07F147EE9
:0C09EC00001208B890E680E054FEF022F3
:100A770090E682E044C0F090E681F04387010000F1
:040A87000000002249
:10099D0030040990E680E0440AF0800790E680E09C
:1009AD004408F07FDC7E051208B890E65D74FFF018
:0F09BD0090E65FF05391EF90E680E054F7F02260
:0209F800A9074D
:1009FA00AE4AAF4B8F828E83A3E064037017AD01BA
:100A0A0019ED7001228F828E83E07C002FFDEC3E6F
:090A1A00FEAF0580DF7E007F00C5
:010A230022B0
:1008B8008E188F1990E600E054187012E51924017B
:1008C800FFE43518C313F518EF13F519801590E6F2
:1008D80000E05418FFBF100BE51925E0F519E518DD
:1008E80033F518E5191519AE18700215184E60057C
:0608F800120A8B80EE22C3
:100A8B007400F58690FDA57C05A3E582458370F97E
:010A9B002238
:1006000012010002EF0201409AFB9AFB0100020175
:1006100001010A060002EF02014001000902FC008C
:10062000040101A0FA080B00020E030000090400F7
:1006300000000E0100000D240100015000006CDCE0
:10064000020101122402010102000000000000006A
:1006500000030000000C240502010040030000001C
:10066000001C240603FFFFFFFFFFFFFFFFFFFFFF4C
:10067000FFFFFFFFFF000102030000000009240349
:1006800004010100030009040100000E0200000E35
:10069000240101370086000401010001000B24063B
:1006A00001010101000000001E24070102000400F6
:1006B00003000070080000A80C000048002A2C0A63
:1006C00000012A2C0A0009040101010E02000007A2
:1006D000058601000201080B020202000100090464
:1006E000020001020201000524001001042402029C
:1006F00005240602000524010001070581031000FE
:100700000209040300020A00000007058402000237
:10071000000705020200020000000403090412039E
:10072000480044004D00490032005500530042008B
:0D0730000A034A0041004E0049000000008D
:1005260090E61274A2F000000090E61474D2F00077
:10053600000090E61374E2F000000090E6157402E5
:10054600F000000090E60174E3F0000000E490E69D
:1005560009F000000090E602F000000090E603F0CB
:1005660000000090E670E04480F00000000000000B
:1005760090E6047480F00000007402F0000000743D
:1005860004F00000007406F00000007408F000009B
:1005960000E4F000000090E6187410F000000090EF
:1005A600E619740CF000000090E61AF0000000E472
:1005B60090E61BF000000090E6207402F0000000B8
:1005C600E490E621F000000090E6227402F00000BC
:1005D60000E490E623F000000090E6247402F000A8
:0B05E6000000E490E625F00000002279
:100A240090E6A2E020E12490E7C0740AF0A37420C9
:100A3400F0E4A3F0A3F0A3F0A3F0A3F0A37402F0F6
:0C0A4400E4A3F0A3F090E68F740AF02207
:0205FD00D32207
:020B1C00D322E2
:020B1E00D322E0
:0805F10090E6BAE0F51BD322ED
:100AF80090E740E51BF0E490E68AF090E68B04F07E
:020B0800D322F6
:10096C0090E6BAE0F51A00000090E6047480F000FE
:10097C0000007402F00000007404F0000000740623
:10098C00F00000007408F0000000E4F0000000D358
:01099C002238
:100B0A0090E740E51AF0E490E68AF090E68B04F06C
:020B1A00D322E4
:020B2000D322DE
:020B2200D322DC
:020B2400D322DA
:020B2600D322D8
:100A9C00C0E0C083C082D2015391EF90E65D740137
:080AAC00F0D082D083D0E032CB
:100ACC00C0E0C083C0825391EF90E65D7404F0D017
:060ADC0082D083D0E0325D
:100AE200C0E0C083C0825391EF90E65D7402F0D003
:060AF20082D083D0E03247
:1007C900C0E0C083C08290E680E030E70E853C40FF
:1007D900853D41854442854543800C854440854596
:1007E90041853C42853D435391EF90E65D7410F09D
:0707F900D082D083D0E03272
:100AB400C0E0C083C082D2035391EF90E65D740816
:080AC400F0D082D083D0E032B3
:1008FE00C0E0C083C08290E680E030E70E853C40C9
:10090E00853D41854442854543800C85444085455F
:10091E0041853C42853D435391EF90E65D7420F056
:07092E00D082D083D0E0323B
:0105FF0032C9
:010B2800329A
:010B29003299
:010B2A003298
:010B2B003297
:010B2C003296
:010B2D003295
:010B2E003294
:010B2F003293
:010B30003292
:010B31003291
:010B32003290
:010B3300328F
:010B3400328E
:010B3500328D
:010B3600328C
:010B3700328B
:010B3800328A
:010B39003289
:010B3A003288
:010B3B003287
:010B3C003286
:010B3D003285
:010B3E003284
:010B3F003283
:010B40003282
:010B41003281
:010B42003280
:010B4300327F
:010B4400327E
:010B4500327D
:010B4600327C
:010B4700327B
:010B4800327A
:010B49003279
:010B4A003278
:0300000002073DB7
:0C073D00787FE4F6D8FD75814B0207843C
:10093500EB9FF5F0EA9E42F0E99D42F0E89C45F018
:01094500228F
:10094600D083D082F8E4937012740193700DA3A340
:1009560093F8740193C0E0E8C0E0227402936860E3
:06096600EFA3A3A380DF54
:10074900020363E493A3F8E493A34003F68001F260
:1007590008DFF48029E493A3F85407240CC8C333B1
:10076900C4540F4420C8834004F456800146F6DF80
:10077900E4800B0102040810204080900A50E47EB6
:10078900019360BCA3FF543F30E509541FFEE49375
:10079900A360010ECF54C025E060A840B8E493A33C
:1007A900FAE493A3F8E493A3C8C582C8CAC583CA67
:1007B900F0A3C8C582C8CAC583CADFE9DEE780BE1F
:010A7600007F
:00000001FF
