:0A09A600000102020303040405052A
:1008F0001A21010001012A2C0A0001000100000058
:0C090000F0000200000090000002000067
:10090D00E4750B40750A9CF509F508780874FF121B
:08091D0008D2EC4D4E4F70F3BF
:0109250022AF
:10074400E4FBFAEB25E0FFEA33FE74002FF5827434
:10075400403EF583EAF0A3EBF00BBB00010AE4B5DD
:1007640003E1EAB440DDE4FAFBEB25E0FFEA33FE03
:1007740074002FF58274403EF583E0FEA3E06B70B5
:1007840002EE6A60086390FF12090D80F80BBB004B
:0A079400010AE4B503D3EAB440CF34
:01079E002238
:10036200E4F50FF50EF50DF50CC203C200C202C290
:100372000190E61274A2F000000090E61474D2F02C
:1003820000000090E61374E2F000000090E615749D
:1003920002F000000090E60174E3F0000000E49037
:1003A200E609F000000090E602F000000090E6038B
:1003B200F000000090E670E04480F00000000000D1
:1003C2000090E6047480F00000007402F000000067
:1003D2007404F00000007406F00000007408F000DD
:1003E2000000E4F000000090E6187410F000000035
:1003F20090E619740CF000000090E61AF00000007C
:10040200E490E61BF000000090E6207402F0000089
:1004120000E490E621F000000090E6227402F00071
:100422000000E490E623F000000090E6247402F05D
:10043200000000E490E625F00000007541057542D9
:1004420000754905754A12753F0575401C754705CB
:100452007548D7754B05754CD8753B05753CF9D277
:10046200E843D82090E668E04409F090E65CE04476
:100472003DF0D2AF90E680E020E105D20412000305
:1004820090E680E054F7F0538EF8C203C2013001C7
:1004920005120056C2013003F512004150F0C203AA
:1004A2001208AB20001690E682E030E704E020E17B
:1004B200EF90E682E030E604E020E0E41208531216
:0404C200005180CA9B
:0B003600900000E030E402C322D3225F
:1000560090E6B8E0B4A1047F0180027F0090E6B884
:10006600E0B421047E0180027E00EE4FFF90E6B8E8
:10007600E0B422047E0180027E00EE4FFF90E6B8D7
:10008600E0B4A2047E0180027E00EE4F70030201FE
:10009600287F1A90E6B9E0B482047E0180027E00D1
:1000A60090E6B9E0B481047D0180027D00ED4EFE4C
:1000B60090E6B9E0B483047D0180027D00ED4E60D8
:1000C6002CE4FEEF14FDEEC39D501574212EF8E6C8
:1000D600FD74402EF582E434E7F583EDF00E80E3FF
:1000E600E490E68AF090E68BEFF002035AE490E69D
:1000F6008AF090E68BF000000090E6047480F00031
:1001060000007402F00000007404F00000007406A1
:10011600F00000007408F0000000E4F000000002A7
:10012600035A90E6B9E070030201EA147003020272
:100136006724FE70030202EA24FB70030201E41442
:1001460070030201DE1470030201D214700302016F
:10015600D82405600302034E120046400302035AE8
:1001660090E6BBE024FE602A14603B24FD60141474
:10017600602A24067053E4F580E54190E6B3F0E585
:1001860042803C120036503EE54990E6B3F0E54A1F
:10019600802DE54390E6B3F0E5448023E54590E6FF
:1001A600B3F0E546801990E6BAE0FF12087FAA068A
:1001B600A9077B01EA494B600DEE90E6B3F0EF909C
:1001C600E6B4F002035A02034902034912099402F3
:1001D600035A12082202035A1209B002035A1209DC
:1001E6008202035A1205FB400302035A90E6B8E066
:1001F600247F601514601924027063A200E433257D
:10020600E0FFA202E4334F8041E490E740F0803FF4
:1002160090E6BCE0547EFF7E00E0D394807C0040F4
:10022600047D0180027D00EC4EFEED4F24A6F58292
:1002360074093EF583E493FF3395E0FEEF24A1FFB6
:10024600EE34E68F82F583E0540190E740F0E4A3B4
:10025600F090E68AF090E68B7402F002035A0203ED
:10026600491205FD400302035A90E6B8E024FE60F9
:10027600162402600302035A90E6BAE0B40105C2EE
:100286000002035A02034990E6BAE0705590E6BCB4
:10029600E0547EFF7E00E0D394807C0040047D0124
:1002A60080027D00EC4EFEED4F24A6F58274093ED9
:1002B600F583E493FF3395E0FEEF24A1FFEE34E6E9
:1002C6008F82F583E054FEF090E6BCE05480131371
:1002D60013541FFFE0540F2F90E683F0E04420F004
:1002E6008072805F1209B8506B90E6B8E024FE6019
:1002F600192402704E90E6BAE0B40104D20080548C
:1003060090E6BAE06402604C803990E6BCE0547E28
:10031600FF7E00E0D394807C0040047D0180027D56
:1003260000EC4EFEED4F24A6F58274093EF583E4FB
:1003360093FF3395E0FEEF24A1FFEE34E68F82F5BE
:1003460083800D90E6A080081209BA500790E6A0B7
:0B035600E04401F090E6A0E04480F0DD
:010361002279
:030033000204FCC8
:0404FC0053D8EF32B0
:02004100D322C8
:02005100D322B8
:0B00460075110075120090E6BBE0226F
:0809B00090E6BAE0F513D32232
:1009820090E740E513F0E490E68AF090E68B04F0FD
:02099200D3226E
:1008220090E6BAE0F51000000090E6047480F00053
:1008320000007402F00000007404F000000074066E
:10084200F00000007408F0000000E4F0000000D3A3
:010852002283
:1009940090E740E510F0E490E68AF090E68B04F0EE
:0209A400D3225C
:0205FB00D32209
:0205FD00D32207
:0209B800D32248
:0209BA00D32246
:10092600C0E0C083C082D2015391EF90E65D7401AE
:08093600F0D082D083D0E03242
:10095600C0E0C083C0825391EF90E65D7404F0D08E
:0609660082D083D0E032D4
:10096C00C0E0C083C0825391EF90E65D7402F0D07A
:06097C0082D083D0E032BE
:1004C600C0E0C083C0828547438548448544828511
:1004D6004383A37402F0853F458540468546828561
:1004E6004583A37407F05391EF90E65D7410F0D046
:0604F60082D083D0E03249
:10093E00C0E0C083C082D2035391EF90E65D74088D
:08094E00F0D082D083D0E0322A
:1007E500C0E0C083C08290E680E030E720853F43CB
:1007F500854044854482854383A37402F08547453B
:10080500854846854682854583A37407F05391EF55
:0D08150090E65D7420F0D082D083D0E032F8
:01003200329B
:0105FF0032C9
:0109BC003208
:0109BD003207
:0109BE003206
:0109BF003205
:0109C0003204
:0109C1003203
:0109C2003202
:0109C3003201
:0109C4003200
:0109C50032FF
:0109C60032FE
:0109C70032FD
:0109C80032FC
:0109C90032FB
:0109CA0032FA
:0109CB0032F9
:0109CC0032F8
:0109CD0032F7
:0109CE0032F6
:0109CF0032F5
:0109D00032F4
:0109D10032F3
:0109D20032F2
:0109D30032F1
:0109D40032F0
:0109D50032EF
:0109D60032EE
:0109D70032ED
:0109D80032EC
:0109D90032EB
:0109DA0032EA
:0109DB0032E9
:0109DC0032E8
:0109DD0032E7
:03004300020600B2
:03005300020600A2
:100600000209260002096C000209560002093E0098
:100610000204C6000207E500020032000205FF00E6
:100620000209BC000209BD000209BE000209BF00A8
:100630000209C0000209C1000209C2000209C30088
:100640000209C4000205FF000209C5000209C60034
:100650000209C7000209C8000209C9000209CA004C
:100660000209CB000205FF000205FF000205FF00A2
:100670000209CC000209CD000209CE000209CF0018
:100680000209D0000209D1000209D2000209D300F8
:100690000209D4000209D5000209D6000209D700D8
:1006A0000209D8000209D9000209DA000209DB00B8
:0806B0000209DC000209DD0073
:1008530090E682E030E004E020E60B90E682E030B0
:10086300E119E030E71590E680E04401F07F147E63
:0C0873000012079F90E680E054FEF02287
:1008AB0090E682E044C0F090E681F04387010000BF
:0408BB000000002217
:1000030030040990E680E0440AF0800790E680E03F
:100013004408F07FDC7E0512079F90E65D74FFF0D5
:0F00230090E65FF05391EF90E680E054F7F02203
:02087F00A907C7
:10088100AE4BAF4C8F828E83A3E064037017AD0132
:1008910019ED7001228F828E83E07C002FFDEC3EEA
:0908A100FEAF0580DF7E007F0040
:0108AA00222B
:10079F008E148F1590E600E054187012E5152401A1
:1007AF00FFE43514C313F514EF13F515801590E618
:1007BF0000E05418FFBF100BE51525E0F515E51403
:1007CF0033F514E5151515AE14700215144E6005AA
:0607DF001208BF80EE22AB
:1008BF007400F58690FDA57C05A3E582458370F94C
:0108CF002206
:1005000012010002EF0201409AFB9AFB0100020176
:1005100000010A060002EF02014001000902BA00D0
:1005200002010080FA080B00020E0300000904001B
:1005300000000E0100000D240100015000006CDCE1
:10054000020101122402010102000000000000006B
:1005500000030000000C240502010040030000001D
:10056000001C240603FFFFFFFFFFFFFFFFFFFFFF4D
:10057000FFFFFFFFFF00010203000000000924034A
:1005800004010100030009040100000E0200000E36
:10059000240101370086000401010001000B24063C
:1005A00001010101000000001E24070102000400F7
:1005B00003000070080000A80C000048002A2C0A64
:1005C00000012A2C0A0009040101010E02000007A3
:1005D000058601000201000004030904120348001B
:1005E00044004D00490032005500530042000A0308
:0B05F0004A0041004E004900000000DE
:030000000206B83D
:0C06B800787FE4F6D8FD75814C0206FF47
:1008D0007401FF3395E0FEFDFC080808E6CF2FF613
:1008E00018E6CE3EF618E6CD3DF618E6CC3CF622EC
:1006C400020362E493A3F8E493A34003F68001F2E7
:1006D40008DFF48029E493A3F85407240CC8C33337
:1006E400C4540F4420C8834004F456800146F6DF06
:1006F400E4800B01020408102040809008F0E47E9E
:10070400019360BCA3FF543F30E509541FFEE493FA
:10071400A360010ECF54C025E060A840B8E493A3C1
:10072400FAE493A3F8E493A3C8C582C8CAC583CAEC
:10073400F0A3C8C582C8CAC583CADFE9DEE780BEA4
:01090C0000EA
:00000001FF
