:1009D600471000600900000000081A21010001010B
:1009E6002A2C0A00010001000000F00002000000AD
:0609F600180000040000DF
:10057200E4F513F512F511F510C203C200C202C26E
:10058200017E087F008E3E8F3F75480875491275BF
:100592003C08753D1C754409754529754A09754B1A
:1005A2002A90E680E030E70E853C40853D41854457
:1005B20042854543800C854440854541853C4285C2
:1005C2003D43EE54E070030206DA7514007515809F
:1005D2007E087F008E168F17C3744B9FFF74099E8F
:1005E200CF2402CF3400FEE48F0F8E0EF50DF50CF2
:1005F200F50BF50AF509F508AF0FAE0EAD0DAC0C13
:10060200AB0BAA0AA909A808C3120AEF5026E515DE
:10061200250BF582E514350AF58374CDF0E50B243C
:1006220001F50BE4350AF50AE43509F509E4350864
:10063200F50880C4E4F50BF50AF509F508AF0FAE2D
:100642000EAD0DAC0CAB0BAA0AA909A808C3120A7D
:10065200EF5033E517250BF582E516350AF583E0F1
:10066200FFE515250BF582E514350AF583EFF0E574
:100672000B2401F50BE4350AF50AE43509F509E422
:100682003508F50880B785143E85153F740024802F
:10069200FF740834FFFEC3E5499FF549E5489EF51E
:1006A20048C3E5419FF541E5409EF540C3E5439FC0
:1006B200F543E5429EF542C3E53D9FF53DE53C9E8F
:1006C200F53CC3E5459FF545E5449EF544C3E54B3E
:1006D2009FF54BE54A9EF54AD2E843D82090E6685A
:1006E200E04409F090E65CE0443DF0D2AFD204125F
:1006F2000B26538EF8C20312033A30010712008010
:10070200C2018003120B813003F01207FE50EBC2CC
:1007120003120BD820001690E682E030E704E020B6
:10072200E1EF90E682E030E604E020E0E4120B55CF
:050732001209FD80C565
:1000800090E6B9E0120B000250000297010306034C
:1000900001C906024A0802440902380A023E0B005E
:1000A000EA2001502103322200B58100B58200B55B
:1000B0008300000326E4F546F547AF4774212FF887
:1000C000E6FE74402FF582E434E7F583EEF0054751
:1000D000E54770020546641A454670DEE490E68AFC
:1000E000F090E68B741AF0020332753B07C2E89079
:1000F000E6B57401F0E490E68BF090E6B5F0D2E856
:1001000090E68BE0B53BF900000000000000000025
:1001100000000000000000E4F546F547C3E5479500
:100120003B7480F86546984003020332AF47744041
:100130002FF582E434E7F583E0FE74002FF582E4C6
:100140003410F583EEF00547E54770D0054680CCC6
:1001500090E6B57401F0753B07E4F546F547C3E555
:1001600047953B7480F86546985024AF4774002F3C
:10017000F582E43410F583E0FE74402FF582E43418
:10018000E7F583EEF00547E54770D3054680CFE4F9
:1001900090E68AF00000000000000000000000006F
:1001A0000000000090E68BE53BF00000000000003E
:1001B0000000000000000000000090E6A0E020E148
:1001C000F9E490E6B5F002033290E6B57401F0125E
:1001D0000C85400302033290E6BBE024FE6022144B
:1001E000603324FD601114602224067048E53E90BF
:1001F000E6B3F0E53F8037E54890E6B3F0E54980A7
:100200002DE54090E6B3F0E5418023E54290E6B36A
:10021000F0E543801990E6BAE0FF120BADAA06A9FB
:10022000077B01EA494B600DEE90E6B3F0EF90E6F4
:10023000B4F002033202032B120C6B0203321209D8
:1002400093020332120C7D020332120C5902033264
:10025000120C87400302033290E6B8E0247F601A54
:1002600014601F2402702DA200E43325E0FFA202D7
:10027000E4334F90E740F0E48005E490E740F0A3DA
:100280008004E490E741F090E68AF090E68B7402F7
:10029000F002033202032B90E6B8E0B4A1047F0120
:1002A00080027F0090E6B8E0B421047E0180027EE7
:1002B00000EE4FFF90E6B8E0B422047E0180027E9B
:1002C00000EE4FFF90E6B8E0B4A2047E0180027E0B
:1002D00000EE4F600BE490E68AF090E68BF08052DF
:1002E000120C89504D90E6B8E024FE601124027093
:1002F0004190E6BAE0B40104C2008036802D90E659
:10030000BAE0602E8025120C8B502790E6B8E024CE
:10031000FE60112402701B90E6BAE0B40104D20022
:10032000801080078005120C8D500790E6A0E044F5
:0903300001F090E6A0E04480F029
:0103390022A1
:030033000207FAC7
:0407FA0053D8EF32AF
:03004300020A00AE
:03005300020A009E
:100A0000020BFD00020C4300020C2D00020C15002D
:100A10000207C300020AB8000209FF00020C8F009F
:100A2000020C9000020C9100020C9200020C930048
:100A3000020C9400020C9500020C9600020C970028
:100A4000020C9800020C8F00020C9900020C9A0014
:100A5000020C9B00020C9C00020C9D00020C9E00EC
:100A6000020C9F00020C8F00020C8F00020C8F0002
:100A7000020CA000020CA100020CA200020CA300B8
:100A8000020CA400020CA500020CA600020CA70098
:100A9000020CA800020CA900020CAA00020CAB0078
:100AA000020CAC00020CAD00020CAE00020CAF0058
:080AB000020CB000020CB100C1
:100B550090E682E030E004E020E60B90E682E030AB
:100B6500E119E030E71590E680E04401F07F147E5E
:0C0B75000012094D90E680E054FEF022D2
:100B260030040990E680E0440AF0800790E680E011
:100B36004408F07FDC7E0512094D90E65D74FFF0F7
:0F0B460090E65FF05391EF90E680E054F7F022D5
:020BAD00A90796
:100BAF00AE4AAF4B8F828E83A3E064037017AD0103
:100BBF0019ED7001228F828E83E07C002FFDEC3EB9
:080BCF00FEAF0580DFE4FEFF2C
:010BD70022FB
:100BD80090E682E044C0F090E681F043870100008F
:040BE80000000022E7
:10094D008E188F1990E600E054187012E5192401E5
:10095D00FFE43518C313F518EF13F519801590E65C
:10096D0000E05418FFBF100BE51925E0F519E51847
:10097D0033F518E5191519AE18700215184E6005E6
:06098D00120BEC80EE22CB
:100BEC007400F58690FDA57C05A3E582458370F91C
:010BFC0022D6
:1008000012010002EF0201409AFB9AFB0100020173
:1008100001010A060002EF020140010009020C0179
:10082000040101A0FA080B00020E030000090400F5
:1008300000000E0100000D240100015000006CDCDE
:100840000201011224020101020000000000000068
:1008500000030000000C240502010040030000001A
:10086000001C240603FFFFFFFFFFFFFFFFFFFFFF4A
:10087000FFFFFFFFFF000102030000000009240347
:1008800004010100030009040100000E0200000E33
:10089000240101470086000401010001001B24041B
:1008A00001015955593200001000800000AA00389B
:1008B0009B711001000000001E24050102000400CD
:1008C0000300B80B000000B80B0000180015160557
:1008D00000011516050009040101010E02000007C0
:1008E000058601000401080B020202000100090450
:1008F000020001020201000524001001042402028A
:1009000005240602000524010001070581031000EB
:10091000FF09040300020A00000007058402000228
:10092000FF070502020002FF00000403090412038E
:10093000480044004D004900320055005300420079
:0D0940000A034A0041004E0049000000007B
:10033A0000000000000000000000000000000000B3
:10034A00E490E602F0000000000000000000000057
:10035A00000000000090E603F0000000000000002A
:10036A0000000000000000000090E609F000000014
:10037A000000000000000000000000000090E60BF2
:10038A007403F000000000000000000000000000FC
:10039A0000000090E600E054E74410F0000000007E
:1003AA0000000000000000000000000090E6017458
:1003BA00E3F0000000000000000000000000000060
:1003CA000000E490E610F0000000000000000000C9
:1003DA000000000000000090E61174A0F000000088
:1003EA000000000000000000000000000090E6127B
:1003FA0074A2F000000000000000000000000000ED
:10040A0000000090E61374E2F00000000000000013
:10041A0000000000000000000090E61474DAF0000A
:10042A00000000000000000000000000000000E4DE
:10043A0090E615F000000000000000000000000037
:10044A000000000090E6187410F0000000000000A0
:10045A000000000000000000000090E619740CF093
:10046A000000000000000000000000000000000082
:10047A0090E61AF0000000000000000000000000F2
:10048A0000000000E490E61BF000000000000000FD
:10049A0000000000000000000090E6227402F00054
:1004AA00000000000000000000000000000000E45E
:1004BA0090E623F0000000000000000000000000A9
:1004CA000000000090E6247404F000000000000020
:1004DA0000000000000000000000E490E625F000A3
:1004EA000000000000000000000000000000009072
:1004FA00E6047480F0000000000000000000000024
:10050A0000000000007482F00000000000000000FB
:10051A0000000000000000007484F00000000000E9
:10052A0000000000000000000000007486F00000D7
:10053A000000000000000000000000000000E4F0DD
:10054A0000000000000000000000000000000000A1
:10055A0090E6497482F000000000000000000000EC
:08056A00000000000000F02277
:100B810090E6A2E020E12490E7C0740AF0A374206B
:100B9100F0E4A3F0A3F0A3F0A3F0A3F0A37402F098
:0C0BA100E4A3F0A3F090E68F740AF022A9
:0207FE00D32204
:0209FD00D32203
:020C8500D32278
:080C7D0090E6BAE0F51BD3225A
:100C590090E740E51BF0E490E68AF090E68B04F01B
:020C6900D32294
:1009930090E6BAE0F51A0000000000000000000035
:1009A30000000000000090E6047480F000000000E6
:1009B3000000000000000000000000007486F0004A
:1009C300000000000000000000000000000000E440
:0309D300F0D3223C
:100C6B0090E740E51AF0E490E68AF090E68B04F00A
:020C7B00D32282
:020C8700D32276
:020C8900D32274
:020C8B00D32272
:020C8D00D32270
:100BFD00C0E0C083C082D2015391EF90E65D7401D5
:080C0D00F0D082D083D0E03268
:100C2D00C0E0C083C0825391EF90E65D7404F0D0B4
:060C3D0082D083D0E032FA
:100C4300C0E0C083C0825391EF90E65D7402F0D0A0
:060C530082D083D0E032E4
:1007C300C0E0C083C08290E680E030E70E853C4005
:1007D300853D41854442854543800C85444085459C
:1007E30041853C42853D435391EF90E65D7410F0A3
:0707F300D082D083D0E03278
:100C1500C0E0C083C082D2035391EF90E65D7408B3
:080C2500F0D082D083D0E03250
:100AB800C0E0C083C08290E680E030E70E853C400D
:100AC800853D41854442854543800C8544408545A4
:100AD80041853C42853D435391EF90E65D7420F09B
:070AE800D082D083D0E03280
:0109FF0032C5
:010C8F003232
:010C90003231
:010C91003230
:010C9200322F
:010C9300322E
:010C9400322D
:010C9500322C
:010C9600322B
:010C9700322A
:010C98003229
:010C99003228
:010C9A003227
:010C9B003226
:010C9C003225
:010C9D003224
:010C9E003223
:010C9F003222
:010CA0003221
:010CA1003220
:010CA200321F
:010CA300321E
:010CA400321D
:010CA500321C
:010CA600321B
:010CA700321A
:010CA8003219
:010CA9003218
:010CAA003217
:010CAB003216
:010CAC003215
:010CAD003214
:010CAE003213
:010CAF003212
:010CB0003211
:010CB1003210
:03000000020737BD
:0C073700787FE4F6D8FD75814B02077E48
:100AEF00EB9FF5F0EA9E42F0E99D42F0E89C45F05D
:010AFF0022D4
:100B0000D083D082F8E4937012740193700DA3A384
:100B100093F8740193C0E0E8C0E022740293686027
:060B2000EFA3A3A380DF98
:10074300020572E493A3F8E493A34003F68001F255
:1007530008DFF48029E493A3F85407240CC8C333B7
:10076300C4540F4420C8834004F456800146F6DF86
:10077300E4800B01020408102040809009D6E47E37
:10078300019360BCA3FF543F30E509541FFEE4937B
:10079300A360010ECF54C025E060A840B8E493A342
:1007A300FAE493A3F8E493A3C8C582C8CAC583CA6D
:1007B300F0A3C8C582C8CAC583CADFE9DEE780BE25
:0109FC0000FA
:00000001FF
