:0A0959000001020203030404050577
:1008A3001A21000001012A2C0A00000000000000A8
:0C08B30000000000009001000000BA6F7F
:1008C000E4750B40750A9CF509F508780874FF1269
:0808D0000885EC4D4E4F70F35A
:0108D80022FD
:1004A000E4FBFAEB25E0FFEA33FE74002FF58274DB
:1004B000403EF583EAF0A3EBF00BBB00010AE4B584
:1004C00003E1EAB440DDE4FAFBEB25E0FFEA33FEAA
:1004D00074002FF58274403EF583E0FEA3E06B705C
:1004E00002EE6A60086390FF1208C080F80BBB0040
:0A04F000010AE4B503D3EAB440CFDB
:0104FA0022DF
:10033600E4F50FF50EF50DF50CC203C200C202C2BC
:100346000100000090E609F000000090E602F000CF
:10035600000090E603F000000090E670E04480F0B4
:1003660000000090E60174E3F000000090E61274CD
:10037600A2F000000090E61474D2F000000090E6AF
:100386001374E2F000000090E6157402F00000001D
:1003960000000090E6047480F00000007402F00093
:1003A60000007404F00000007406F00000007408F9
:1003B600F0000000E4F000000090E618F0000000F5
:1003C6007410F000000090E619740CF00000009024
:1003D600E61A744CF000000090E6207402F000006B
:1003E60000E490E621F000000090E6227402F0009E
:1003F6000000E490E623F000000090E6247402F08A
:10040600000000E490E625F000000075B5FF75B029
:10041600FF754105754200754905754A12753F0518
:1004260075401C7547057548E3754B05754CE475B5
:100436003B06753C05D2E843D82090E668E04409BF
:10044600F090E65CE0443DF0D2AF90E680E020E13B
:1004560005D20412000390E680E054F7F0538EF8BC
:10046600C203C201300105120056C2013003F51263
:10047600004150F0C2031206D920001690E682E031
:1004860030E704E020E1EF90E682E030E604E02089
:0A049600E0E412082B12005180CAA6
:0B003600900000E030E402C322D3225F
:1000560090E6B8E0B4A1047F0180027F0090E6B884
:10006600E0B421047E0180027E00EE4FFF90E6B8E8
:10007600E0B422047E0180027E00EE4FFF90E6B8D7
:10008600E0B4A2047E0180027E00EE4F60687F1A13
:1000960090E6B9E0B482047E0180027E0090E6B963
:1000A600E0B481047D0180027D00ED4EFE90E6B94C
:1000B600E0B483047D0180027D00ED4E602CE4FEF9
:1000C600EF14FDEEC39D501574212EF8E6FD744025
:1000D6002EF582E434E7F583EDF00E80E3E490E656
:1000E6008AF090E68BEFF002032EE490E68AF09019
:1000F600E68BF002032E90E6B9E070030201BE140F
:10010600700302023B24FE70030202BE24FB70034E
:100116000201B81470030201B21470030201A6149E
:1001260070030201AC24056003020322120046405C
:100136000302032E90E6BBE024FE602A14603B24F3
:10014600FD601414602A24067053E4F580E541909E
:10015600E6B3F0E542803C120036503EE54990E6B3
:10016600B3F0E54A802DE54390E6B3F0E5448023FD
:10017600E54590E6B3F0E546801990E6BAE0FF1251
:100186000857AA06A9077B01EA494B600DEE90E6DF
:10019600B3F0EF90E6B4F002032E02031D02031D36
:1001A60012094702032E12096B02032E120963027B
:1001B600032E12093502032E1206FE400302032EF9
:1001C60090E6B8E0247F601514601924027063A2DB
:1001D60000E43325E0FFA202E4334F8041E490E7D8
:1001E60040F0803F90E6BCE0547EFF7E00E0D39472
:1001F600807C0040047D0180027D00EC4EFEED4FC8
:100206002459F58274093EF583E493FF3395E0FEA5
:10021600EF24A1FFEE34E68F82F583E0540190E7E8
:1002260040F0E4A3F090E68AF090E68B7402F002C8
:10023600032E02031D120973400302032E90E6B833
:10024600E024FE60162402600302032E90E6BAE064
:10025600B40105C20002032E02031D90E6BAE07047
:100266005590E6BCE0547EFF7E00E0D394807C008F
:1002760040047D0180027D00EC4EFEED4F2459F5D1
:100286008274093EF583E493FF3395E0FEEF24A1E3
:10029600FFEE34E68F82F583E054FEF090E6BCE094
:1002A6005480131313541FFFE0540F2F90E683F06E
:1002B600E04420F08072805F120975506B90E6B8BA
:1002C600E024FE60192402704E90E6BAE0B4010400
:1002D600D200805490E6BAE06402604C803990E621
:1002E600BCE0547EFF7E00E0D394807C0040047D19
:1002F6000180027D00EC4EFEED4F2459F582740913
:100306003EF583E493FF3395E0FEEF24A1FFEE3440
:10031600E68F82F583800D90E6A08008120977505B
:0F0326000790E6A0E04401F090E6A0E04480F0EC
:0103350022A5
:030033000204FBC9
:0404FB0053D8EF32B1
:02004100D322C8
:02005100D322B8
:0B00460075110075120090E6BBE0226F
:0809630090E6BAE0F513D3227F
:1009350090E740E513F0E490E68AF090E68B04F04A
:02094500D322BB
:08096B0090E6BAE0F510D3227A
:1009470090E740E510F0E490E68AF090E68B04F03B
:02095700D322A9
:0206FE00D32205
:02097300D3228D
:02097500D3228B
:02097700D32289
:1008D900C0E0C083C082D2015391EF90E65D7401FC
:0808E900F0D082D083D0E03290
:10090900C0E0C083C0825391EF90E65D7404F0D0DB
:0609190082D083D0E03221
:10091F00C0E0C083C0825391EF90E65D7402F0D0C7
:06092F0082D083D0E0320B
:1007F500C0E0C083C08285474385484485448285DF
:100805004383A37402F0853F45854046854682852E
:100815004583A37407F05391EF90E65D7410F0D013
:0608250082D083D0E03216
:1008F100C0E0C083C082D2035391EF90E65D7408DB
:08090100F0D082D083D0E03277
:1007B800C0E0C083C08290E680E030E720853F43F8
:1007C800854044854482854383A37402F085474568
:1007D800854846854682854583A37407F05391EF83
:0D07E80090E65D7420F0D082D083D0E03226
:01003200329B
:0104FF0032CA
:01097900324B
:01097A00324A
:01097B003249
:01097C003248
:01097D003247
:01097E003246
:01097F003245
:010980003244
:010981003243
:010982003242
:010983003241
:010984003240
:01098500323F
:01098600323E
:01098700323D
:01098800323C
:01098900323B
:01098A00323A
:01098B003239
:01098C003238
:01098D003237
:01098E003236
:01098F003235
:010990003234
:010991003233
:010992003232
:010993003231
:010994003230
:01099500322F
:01099600322E
:01099700322D
:01099800322C
:01099900322B
:01099A00322A
:03004300020700B1
:03005300020700A1
:100700000208D90002091F00020909000208F100CD
:100710000207F5000207B800020032000204FF00E1
:100720000209790002097A0002097B0002097C00B3
:1007300002097D0002097E0002097F000209800093
:10074000020981000204FF000209820002098300FD
:100750000209840002098500020986000209870057
:10076000020988000204FF000204FF000204FF00E7
:100770000209890002098A0002098B0002098C0023
:1007800002098D0002098E0002098F000209900003
:1007900002099100020992000209930002099400E3
:1007A00002099500020996000209970002099800C3
:0807B0000209990002099A00F8
:10082B0090E682E030E004E020E60B90E682E030D8
:10083B00E119E030E71590E680E04401F07F147E8B
:0C084B000012069390E680E054FEF022BC
:1006D90090E682E044C0F090E681F0438701000093
:0406E90000000022EB
:1000030030040990E680E0440AF0800790E680E03F
:100013004408F07FDC7E0512069390E65D74FFF0E2
:0F00230090E65FF05391EF90E680E054F7F02203
:02085700A907EF
:10085900AE4BAF4C8F828E83A3E064037017AD015A
:1008690019ED7001228F828E83E07C002FFDEC3E12
:09087900FEAF0580DF7E007F0068
:010882002253
:100693008E148F1590E600E054187012E5152401AE
:1006A300FFE43514C313F514EF13F515801590E625
:1006B30000E05418FFBF100BE51525E0F515E51410
:1006C30033F514E5151515AE14700215144E6005B7
:0606D3001206ED80EE228C
:1006ED007400F58690FDA57C05A3E582458370F920
:0106FD0022DA
:1005000012010002EF0201409AFB9AFB0100020176
:1005100000010A060002EF02014001000902C600C4
:1005200002010080FA080B00020E0300000904001B
:1005300000010E0100000D240100015000006CDCE0
:10054000020101122402010102000000000000006B
:1005500000030000000C240502010040030000001D
:10056000001C240603FFFFFFFFFFFFFFFFFFFFFF4D
:10057000FFFFFFFFFF00010203000000000924034A
:10058000040101000300070581034000080525035D
:10059000400009040100000E0200000E24010119B0
:1005A0000086000401010001000B24060101010185
:1005B000000000001E240701000004000300C05DCD
:1005C0000000C05D00005802000A8B0200010A8B87
:1005D000020009040101010E020000070586050062
:1005E00002010000040309041203480044004D0006
:1005F000490032005500530042000A034A004100FE
:070600004E0049000000005C
:03000000020607EE
:0C060700787FE4F6D8FD75814C02064EA9
:100883007401FF3395E0FEFDFC080808E6CF2FF660
:1008930018E6CE3EF618E6CD3DF618E6CC3CF62239
:10061300020336E493A3F8E493A34003F68001F2C4
:1006230008DFF48029E493A3F85407240CC8C333E8
:10063300C4540F4420C8834004F456800146F6DFB7
:10064300E4800B01020408102040809008A3E47E9C
:10065300019360BCA3FF543F30E509541FFEE493AC
:10066300A360010ECF54C025E060A840B8E493A373
:10067300FAE493A3F8E493A3C8C582C8CAC583CA9E
:10068300F0A3C8C582C8CAC583CADFE9DEE780BE56
:0108BF000038
:00000001FF
