:100A1000471000600900000000081A2100000101D1
:100A20000A8B02000000000000000000F0000040FF
:060A3000060000020000B8
:10033700E4F513F512F511F510C203C200C202C2AB
:10034700011206497E057F008E3E8F3F7548057571
:100357004912753C05753D1C754406754525754A5A
:1003670006754B2690E680E030E70E853C40853DDC
:1003770041854442854543800C85444085454185F8
:100387003C42853D43EE54E070030204A27514001D
:100397007515807E057F008E168F17C374479FFFE4
:1003A70074069ECF2402CF3400FEE48F0F8E0EF525
:1003B7000DF50CF50BF50AF509F508AF0FAE0EAD07
:1003C7000DAC0CAB0BAA0AA909A808C31209265041
:1003D70026E515250BF582E514350AF58374CDF06E
:1003E700E50B2401F50BE4350AF50AE43509F509AF
:1003F700E43508F50880C4E4F50BF50AF509F508B6
:10040700AF0FAE0EAD0DAC0CAB0BAA0AA909A8082D
:10041700C31209265033E517250BF582E516350A71
:10042700F583E0FFE515250BF582E514350AF5831D
:10043700EFF0E50B2401F50BE4350AF50AE435097D
:10044700F509E43508F50880B785143E85153F742E
:10045700002480FF740534FFFEC3E5499FF549E595
:10046700489EF548C3E5419FF541E5409EF540C3E9
:10047700E5439FF543E5429EF542C3E53D9FF53DC4
:10048700E53C9EF53CC3E5459FF545E5449EF544AF
:10049700C3E54B9FF54BE54A9EF54AD2E843D82082
:1004A70090E668E04409F090E65CE0443DF0D2AFA6
:1004B700D20412095D538EF8C20330010512008081
:1004C700C2013003291204FE5024C203120A372046
:1004D700001690E682E030E704E020E1EF90E68244
:1004E700E030E604E020E0E412098C1207FE12096E
:0304F700E480C7D7
:1000800090E6B8E0B4A1047F0180027F0090E6B85A
:10009000E0B421047E0180027E00EE4FFF90E6B8BE
:1000A000E0B422047E0180027E00EE4FFF90E6B8AD
:1000B000E0B4A2047E0180027E00EE4F606F90E605
:1000C000B9E0B482047F0180027F0090E6B9E0B419
:1000D00081047E0180027E00EE4FFF90E6B9E0B41D
:1000E00083047E0180027E00EE4F6035E4F546F524
:1000F00047AF4774212FF8E6FE74402FF582E434B1
:10010000E7F583EEF00547E54770020546641A45BA
:100110004670DEE490E68AF090E68B741AF00203F3
:100120002FE490E68AF090E68BF002032F90E6B978
:10013000E012093702980002DD01030303021106F1
:10014000029208028C0902800A02860B01592001E2
:10015000B221032F2200000323753B07C2E890E67B
:10016000B57401F0E490E68BF090E6B5F0D2E8903B
:10017000E68BE0B53BF9000000E4F546F547C3E542
:1001800047953B7480F8654698400302032FAF47BC
:1001900074402FF582E434E7F583E0FE74002FF518
:1001A00082E43410F583EEF00547E54770D005464C
:1001B00080CC90E6B57401F0753B07E4F546F54751
:1001C000C3E547953B7480F86546985024AF477463
:1001D000002FF582E43410F583E0FE74402FF582A1
:1001E000E434E7F583EEF00547E54770D305468034
:1001F000CFE490E68AF000000090E68BE53BF0004B
:10020000000090E6A0E020E1F9E490E6B5F00203FA
:100210002F90E6B57401F0120AD4400302032F9028
:10022000E6BBE024FE602214603324FD60111460FC
:100230002224067048E53E90E6B3F0E53F8037E5BE
:100240004890E6B3F0E549802DE54090E6B3F0E54F
:10025000418023E54290E6B3F0E543801990E6BA89
:10026000E0FF1209B8AA06A9077B01EA494B600D15
:10027000EE90E6B3F0EF90E6B4F002032F0203280D
:10028000120AB202032F120ACC02032F120AC4026E
:10029000032F120AA002032F120AD6400302032FD3
:1002A00090E6B8E0247F601A14601F2402702CA22C
:1002B00000E43325E0FFA202E4334F90E740F0E48E
:1002C0008005E490E740F0A38004E490E741F090DB
:1002D000E68AF090E68B7402F08054804B120AD8C4
:1002E000504D90E6B8E024FE60112402704190E683
:1002F000BAE0B40104C2008036802D90E6BAE06016
:100300002E8025120ADA502790E6B8E024FE60110C
:100310002402701B90E6BAE0B40104D20080108081
:10032000078005120ADC500790E6A0E04401F09037
:06033000E6A0E04480F0AD
:0103360022A4
:030033000204FACA
:0404FA0053D8EF32B2
:03004300020800B0
:03005300020800A0
:100800000207E600020A8A00020A7400020A5C007B
:100810000208B8000208EF00020ADE00020ADF0048
:10082000020AE000020AE100020AE200020AE30012
:10083000020AE400020AE500020AE600020AE700F2
:10084000020AE800020ADF00020AE900020AEA00DE
:10085000020AEB00020AEC00020AED00020AEE00B6
:10086000020AEF00020ADF00020ADF00020ADF00CC
:10087000020AF000020AF100020AF200020AF30082
:10088000020AF400020AF500020AF600020AF70062
:10089000020AF800020AF900020AFA00020AFB0042
:1008A000020AFC00020AFD00020AFE00020AFF0022
:0808B000020B0000020B010025
:10098C0090E682E030E004E020E60B90E682E03076
:10099C00E119E030E71590E680E04401F07F147E29
:0C09AC00001207A090E680E054FEF0224C
:100A370090E682E044C0F090E681F0438701000031
:040A47000000002289
:10095D0030040990E680E0440AF0800790E680E0DC
:10096D004408F07FDC7E051207A090E65D74FFF071
:0F097D0090E65FF05391EF90E680E054F7F022A0
:0209B800A9078D
:1009BA00AE4AAF4B8F828E83A3E064037017AD01FA
:1009CA0019ED7001228F828E83E07C002FFDEC3EB0
:0909DA00FEAF0580DF7E007F0006
:0109E30022F1
:1007A0008E188F1990E600E054187012E519240194
:1007B000FFE43518C313F518EF13F519801590E60B
:1007C00000E05418FFBF100BE51925E0F519E518F6
:1007D00033F518E5191519AE18700215184E600595
:0607E000120A4B80EE221C
:100A4B007400F58690FDA57C05A3E582458370F9BE
:010A5B002278
:1005000012010002EF0201409AFB9AFB0100020176
:1005100001010A060002EF02014001000902080180
:10052000040101A0FA080B00020E030001090400F7
:1005300000010E0100010D240100015000006CDCDF
:10054000020101122402010102000100000000006A
:1005500000030000000C240502010040030000001D
:10056000011C240603FFFFFFFFFFFFFFFFFFFFFF4C
:10057000FFFFFFFFFF000102030000000109240349
:100580000401010003010705880300020805250393
:10059000400009040100000E0200010E24010119AF
:1005A0000086000401010001000B24060101010185
:1005B000000000001E240701000004000300C05DCD
:1005C0000000C05D00005802000A8B0200010A8B87
:1005D000020009040101010E020001070586050061
:1005E0000201080B020202000100090402000102DC
:1005F0000201000524001001042402020524060261
:10060000000524010001070581031000020904030D
:1006100000020A000000070584020002000705022C
:100620000200020000000403090412034800440011
:100630004D00490032005500530042000A034A00B1
:0906400041004E004900000000D9
:1006490090E61274A2F000000090E61474D2F00053
:10065900000090E61374E2F000000090E6157402C1
:10066900F000000090E60174E3F0000000E490E679
:1006790009F000000090E602F000000090E603F0A7
:1006890000000090E670E04480F0000000000000E7
:1006990090E6047480F00000007402F00000007419
:1006A90004F00000007406F00000007408F0000077
:1006B90000E4F000000090E6187410F000000090CB
:1006C900E619740CF000000090E61AF0000000E44E
:1006D90090E61BF000000090E6207402F000000094
:1006E900E490E621F000000090E6227402F0000098
:1006F90000E490E623F000000090E6247402F00084
:0B0709000000E490E625F00000002254
:1009E40090E6A2E020E12490E7C0740AF0A374200A
:1009F400F0E4A3F0A3F0A3F0A3F0A3F0A37402F037
:0C0A0400E4A3F0A3F090E68F740AF02247
:0204FE00D32207
:0207FE00D32204
:020AD400D3222B
:080AC40090E6BAE0F51BD32215
:100AA00090E740E51BF0E490E68AF090E68B04F0D6
:020AB000D3224F
:080ACC0090E6BAE0F51AD3220E
:100AB20090E740E51AF0E490E68AF090E68B04F0C5
:020AC200D3223D
:020AD600D32229
:020AD800D32227
:020ADA00D32225
:020ADC00D32223
:1007E600C0E0C083C082D2015391EF90E65D7401F0
:0807F600F0D082D083D0E03284
:100A7400C0E0C083C0825391EF90E65D7404F0D06F
:060A840082D083D0E032B5
:100A8A00C0E0C083C0825391EF90E65D7402F0D05B
:060A9A0082D083D0E0329F
:1008B800C0E0C083C08290E680E030E70E853C400F
:1008C800853D41854442854543800C8544408545A6
:1008D80041853C42853D435391EF90E65D7410F0AD
:0708E800D082D083D0E03282
:100A5C00C0E0C083C082D2035391EF90E65D74086E
:080A6C00F0D082D083D0E0320B
:1008EF00C0E0C083C08290E680E030E70E853C40D8
:1008FF00853D41854442854543800C85444085456F
:10090F0041853C42853D435391EF90E65D7420F065
:07091F00D082D083D0E0324A
:010ADE0032E5
:010ADF0032E4
:010AE00032E3
:010AE10032E2
:010AE20032E1
:010AE30032E0
:010AE40032DF
:010AE50032DE
:010AE60032DD
:010AE70032DC
:010AE80032DB
:010AE90032DA
:010AEA0032D9
:010AEB0032D8
:010AEC0032D7
:010AED0032D6
:010AEE0032D5
:010AEF0032D4
:010AF00032D3
:010AF10032D2
:010AF20032D1
:010AF30032D0
:010AF40032CF
:010AF50032CE
:010AF60032CD
:010AF70032CC
:010AF80032CB
:010AF90032CA
:010AFA0032C9
:010AFB0032C8
:010AFC0032C7
:010AFD0032C6
:010AFE0032C5
:010AFF0032C4
:010B000032C2
:010B010032C1
:03000000020714E0
:0C071400787FE4F6D8FD75814B02075B8E
:10092600EB9FF5F0EA9E42F0E99D42F0E89C45F027
:01093600229E
:10093700D083D082F8E4937012740193700DA3A34F
:1009470093F8740193C0E0E8C0E0227402936860F2
:06095700EFA3A3A380DF63
:10072000020337E493A3F8E493A34003F68001F2B5
:1007300008DFF48029E493A3F85407240CC8C333DA
:10074000C4540F4420C8834004F456800146F6DFA9
:10075000E4800B0102040810204080900A10E47E1F
:10076000019360BCA3FF543F30E509541FFEE4939E
:10077000A360010ECF54C025E060A840B8E493A365
:10078000FAE493A3F8E493A3C8C582C8CAC583CA90
:10079000F0A3C8C582C8CAC583CADFE9DEE780BE48
:010A360000BF
:00000001FF
