:0A06EF004710006009000000000839
:10028A00E4F513F512F511F510C203C200C202C259
:10029A000112044D7E077F008E248F25752E077567
:1002AA002F1275220775231C752A07752B5F753067
:1002BA000775315F90E680E030E70E8522268523B8
:1002CA0027852A28852B29800C852A26852B278590
:1002DA002228852329EE54E070030203F5751400E1
:1002EA007515807E077F008E168F17C374AB9FFF2C
:1002FA0074079ECF2402CF3400FEE48F0F8E0EF5D2
:10030A000DF50CF50BF50AF509F508AF0FAE0EADB4
:10031A000DAC0CAB0BAA0AA909A808C31207E45032
:10032A0026E515250BF582E514350AF58374CDF01B
:10033A00E50B2401F50BE4350AF50AE43509F5095C
:10034A00E43508F50880C4E4F50BF50AF509F50863
:10035A00AF0FAE0EAD0DAC0CAB0BAA0AA909A808DB
:10036A00C31207E45033E517250BF582E516350A63
:10037A00F583E0FFE515250BF582E514350AF583CB
:10038A00EFF0E50B2401F50BE4350AF50AE435092B
:10039A00F509E43508F50880B78514248515257410
:1003AA00002480FF740734FFFEC3E52F9FF52FE575
:1003BA002E9EF52EC3E5279FF527E5269EF526C333
:1003CA00E5299FF529E5289EF528C3E5239FF5230E
:1003DA00E5229EF522C3E52B9FF52BE52A9EF52AF9
:1003EA00C3E5319FF531E5309EF530D2E843D82098
:1003FA0090E668E04409F090E65CE0443DF0D2AF54
:10040A00D20412081B538EF8C20330010512008071
:10041A00C2013003291206FE5024C2031208CE205C
:10042A00001690E682E030E704E020E1EF90E682F1
:10043A00E030E604E020E0E412087612096B1208C4
:03044A004A80C71E
:1000800090E6B9E01207F501EB00023001025603D9
:1000900001640601E50801DF0901D30A01D90B005B
:1000A000AC2001052102822200000276752107C2E0
:1000B000E890E6B57401F0E490E68BF090E6B5F0D8
:1000C000D2E890E68BE0B521F9000000E4F52CF5CC
:1000D0002DC3E52D95217480F8652C98400302020C
:1000E00082AF2D74402FF582E434E7F583E0FE748F
:1000F000002FF582E43410F583EEF0052DE52D7028
:10010000D0052C80CC90E6B57401F0752107E4F59C
:100110002CF52DC3E52D95217480F8652C9850247D
:10012000AF2D74002FF582E43410F583E0FE7440A7
:100130002FF582E434E7F583EEF0052DE52D70D33D
:10014000052C80CFE490E68AF000000090E68BE575
:1001500021F000000090E6A0E020E1F9E490E6B58F
:10016000F002028290E6B57401F012096D400302BC
:10017000028290E6BBE024FE602214603324FD601E
:100180001114602224067048E52490E6B3F0E525BA
:100190008037E52E90E6B3F0E52F802DE52690E63A
:1001A000B3F0E5278023E52890E6B3F0E529801930
:1001B00090E6BAE0FF1208A2AA06A9077B01EA4965
:1001C0004B600DEE90E6B3F0EF90E6B4F0020282E1
:1001D00002027B12094902028212096302028212A0
:1001E000095B02028212093702028212096F400380
:1001F00002028290E6B8E0247F601A14601F240295
:10020000702CA200E43325E0FFA202E4334F90E714
:1002100040F0E48005E490E740F0A38004E490E738
:1002200041F090E68AF090E68B7402F08054804BA7
:10023000120971504D90E6B8E024FE60112402705E
:100240004190E6BAE0B40104C2008036802D90E609
:10025000BAE0602E8025120973502790E6B8E0249A
:10026000FE60112402701B90E6BAE0B40104D200D3
:10027000801080078005120975500790E6A0E044C1
:0902800001F090E6A0E04480F0DA
:010289002252
:030033000206FAC8
:0406FA0053D8EF32B0
:10044D00000000E490E609F000000090E602F000E4
:10045D00000090E603F000000090E670E04480F0AC
:10046D0000000090E60174E3F000000090E61274C5
:10047D00A2F000000090E61474E2F000000090E697
:10048D0013F000000090E6157402F000000000006B
:10049D000090E6047480F00000007402F00000008B
:1004AD007404F00000007406F00000007408F00001
:1004BD000000E4F000000090E618F0000000741059
:1004CD00F000000090E619740CF000000090E61AA0
:1004DD00F000000090E6207402F0000000E490E6C9
:1004ED0021F000000090E6227402F0000000E4907C
:1004FD00E623F000000090E6247402F0000000E412
:08050D0090E625F00000002239
:10084A0090E6A2E020E12490E7C0740AF0A37420A5
:10085A00F0E4A3F0A3F0A3F0A3F0A3F0A37402F0D2
:0C086A00E4A3F0A3F090E68F740AF022E3
:0206FE00D32205
:02096B00D32295
:02096D00D32293
:08095B0090E6BAE0F51BD3227F
:1009370090E740E51BF0E490E68AF090E68B04F040
:02094700D322B9
:0809630090E6BAE0F51AD32278
:1009490090E740E51AF0E490E68AF090E68B04F02F
:02095900D322A7
:02096F00D32291
:02097100D3228F
:02097300D3228D
:02097500D3228B
:1005E700C0E0C083C082D2015391EF90E65D7401F1
:0805F700F0D082D083D0E03285
:10090B00C0E0C083C0825391EF90E65D7404F0D0D9
:06091B0082D083D0E0321F
:10092100C0E0C083C0825391EF90E65D7402F0D0C5
:0609310082D083D0E03209
:1006B800C0E0C083C08290E680E030E70E85222645
:1006C800852327852A28852B29800C852A26852B92
:1006D800278522288523295391EF90E65D7410F031
:0706E800D082D083D0E03284
:1008F300C0E0C083C082D2035391EF90E65D7408D9
:08090300F0D082D083D0E03275
:1007AD00C0E0C083C08290E680E030E70E8522264F
:1007BD00852327852A28852B29800C852A26852B9C
:1007CD00278522288523295391EF90E65D7420F02B
:0707DD00D082D083D0E0328E
:0105FF0032C9
:01097700324D
:01097800324C
:01097900324B
:01097A00324A
:01097B003249
:01097C003248
:01097D003247
:01097E003246
:01097F003245
:010980003244
:010981003243
:010982003242
:010983003241
:010984003240
:01098500323F
:01098600323E
:01098700323D
:01098800323C
:01098900323B
:01098A00323A
:01098B003239
:01098C003238
:01098D003237
:01098E003236
:01098F003235
:010990003234
:010991003233
:010992003232
:010993003231
:010994003230
:01099500322F
:01099600322E
:01099700322D
:01099800322C
:01099900322B
:03004300020600B2
:03005300020600A2
:100600000205E7000209210002090B000208F300BD
:100610000206B8000207AD000205FF0002097700DC
:10062000020978000209790002097A0002097B00B8
:1006300002097C0002097D0002097E0002097F0098
:100640000209800002097700020981000209820084
:10065000020983000209840002098500020986005C
:100660000209870002097700020977000209770072
:10067000020988000209890002098A0002098B0028
:1006800002098C0002098D0002098E0002098F0008
:1006900002099000020991000209920002099300E8
:1006A00002099400020995000209960002099700C8
:0806B0000209980002099900FB
:1008760090E682E030E004E020E60B90E682E0308D
:10088600E119E030E71590E680E04401F07F147E40
:0C089600001205A190E680E054FEF02264
:1008CE0090E682E044C0F090E681F043870100009C
:0408DE0000000022F4
:10081B0030040990E680E0440AF0800790E680E01F
:10082B004408F07FDC7E051205A190E65D74FFF0B5
:0F083B0090E65FF05391EF90E680E054F7F022E3
:0208A200A907A4
:1008A400AE30AF318F828E83A3E064037017AD0145
:1008B40019ED7001228F828E83E07C002FFDEC3EC7
:0908C400FEAF0580DF7E007F001D
:0108CD002208
:1005A1008E188F1990E600E054187012E519240195
:1005B100FFE43518C313F518EF13F519801590E60C
:1005C10000E05418FFBF100BE51925E0F519E518F7
:1005D10033F518E5191519AE18700215184E600596
:0605E1001208E280EE2288
:1008E2007400F58690FDA57C05A3E582458370F929
:0108F20022E3
:100700001201000202000040B40417470000010279
:1007100000010A0600020000004001000902430037
:10072000020100A0320904000001020201000524B8
:100730000010010424020205240600010524010022
:10074000010705810310000209040100020A0000EC
:1007500000070584020002000705020200020004EF
:1007600003090410034300790070007200650073F0
:10077000007300380345005A002D00550053004215
:100780000020004600580032002000560049005268
:10079000005400550041004C00200043004F004D24
:0D07A00000200050004F00520054000000E7
:03000000020515E1
:0C051500787FE4F6D8FD75813102055CAA
:1007E400EB9FF5F0EA9E42F0E99D42F0E89C45F06B
:0107F40022E2
:1007F500D083D082F8E4937012740193700DA3A393
:1008050093F8740193C0E0E8C0E022740293686035
:06081500EFA3A3A380DFA6
:1005210002028AE493A3F8E493A34003F68001F264
:1005310008DFF48029E493A3F85407240CC8C333DB
:10054100C4540F4420C8834004F456800146F6DFAA
:10055100E4800B01020408102040809006EFE47E45
:10056100019360BCA3FF543F30E509541FFEE4939F
:10057100A360010ECF54C025E060A840B8E493A366
:10058100FAE493A3F8E493A3C8C582C8CAC583CA91
:10059100F0A3C8C582C8CAC583CADFE9DEE780BE49
:0106F9000000
:00000001FF
