:100C9E00471000600900000000085A10070100010B
:100CAE00012A2C0A000000000000000000050000D0
:100CBE00201C00000400004810292A2C0A00545859
:0D0CCE0014004810210000180000201C0038
:1007DC00E4F513F512F511F510C203C200C202C202
:1007EC00017E0A7F008E238F24752D0A752E1275BB
:1007FC00210A75221C75290B752A9A752F0B7530D9
:10080C009A90E680E030E70E852125852226852901
:10081C0027852A28800C852925852A268521278548
:10082C002228EE54E07003020944751400751580FB
:10083C007E0A7F008E168F17C374BA9FFF740B9EAF
:10084C00CF2402CF3400FEE48F0F8E0EF50DF50C85
:10085C00F50BF50AF509F508AF0FAE0EAD0DAC0CA6
:10086C00AB0BAA0AA909A808C3120EB25026E515AB
:10087C00250BF582E514350AF58374CDF0E50B24D0
:10088C0001F50BE4350AF50AE43509F509E43508F8
:10089C00F50880C4E4F50BF50AF509F508AF0FAEC1
:1008AC000EAD0DAC0CAB0BAA0AA909A808C3120E0D
:1008BC00B25033E517250BF582E516350AF583E0C2
:1008CC00FFE515250BF582E514350AF583EFF0E508
:1008DC000B2401F50BE4350AF50AE43509F509E4B6
:1008EC003508F50880B785142385152474002480F9
:1008FC00FF740A34FFFEC3E52E9FF52EE52D9EF501
:10090C002DC3E5269FF526E5259EF525C3E5289FF5
:10091C00F528E5279EF527C3E5229FF522E5219EC4
:10092C00F521C3E52A9FF52AE5299EF529C3E53073
:10093C009FF530E52F9EF52FD2E843D82090E6683E
:10094C00E04409F090E65CE0443DF0D2AFD20412F2
:10095C000EE9538EF8C2031203F330010712008024
:10096C00C2018003120BBC3003F0120FE850EBC233
:10097C0003120F6F20001690E682E030E704E020AF
:10098C00E1EF90E682E030E604E020E0E4120F189C
:05099C00120FEA80C506
:1000800090E6B9E0120EC3025400029B0103BF03C5
:1000900001CD06024E08024809023C0A02420B0149
:1000A000062001602103EB2200B58100B58200B576
:1000B00083000003DF90E6B57401F0E4F52BF52C26
:1000C000AF2C74072FF582E43410F583E0FE744002
:1000D0002FF582E434E7F583EEF0052CE52C700271
:1000E000052B641A452B70D8E490E68AF0000000D6
:1000F0000000000000000000000000000090E68BFF
:10010000741AF00203EBC2E890E6B57401F0E490D3
:10011000E68BF090E6B5F0D2E890E68BE0B407F914
:1001200000000000000000000000000000000000CF
:10013000E4F52BF52CAF2C74402FF582E434E7F571
:1001400083E0FE74002FF582E43410F583EEF005B1
:100150002CE52C7002052B6407452B70D80203EBAD
:1001600090E6B57401F0E4F52BF52CAF2C74002F5C
:10017000F582E43410F583E0FE74402FF582E43418
:10018000E7F583EEF0052CE52C7002052B6407459E
:100190002B70D8E490E68AF0000000000000000018
:1001A000000000000000000090E68B7407F00000E3
:1001B000000000000000000000000000000090E6C9
:1001C000A0E020E1F9E490E6B5F00203EB90E6B59B
:1001D0007401F0120FEC40030203EB90E6BBE02445
:1001E000FE602214603324FD601114602224067026
:1001F00048E52390E6B3F0E5248037E52D90E6B39B
:10020000F0E52E802DE52590E6B3F0E5268023E588
:100210002790E6B3F0E528801990E6BAE0FF120FC8
:1002200044AA06A9077B01EA494B600DEE90E6B3AC
:10023000F0EF90E6B4F00203EB0203E4120FD202F7
:1002400003EB1206060203EB120CF70203EB120F8C
:10025000C00203EB120FEE40030203EB90E6B8E09E
:10026000247F601A14601F2402702DA200E433253D
:10027000E0FFA202E4334F90E740F0E48005E49011
:10028000E740F0A38004E490E741F090E68AF09024
:10029000E68B7402F00203EB0203E490E6B8E0643C
:1002A00021600302039990E68AF090E68B741AF0BD
:1002B000000000000000000000000000000000003E
:1002C00090E6A0E020E1F990E68BE0B41AF990E71F
:1002D00042E0901009F090E743E090100AF090E7B8
:1002E00042E025E025E02425F582E43410F583E0A2
:1002F00090100BF090E742E025E025E02426F582FF
:10030000E43410F583E090100CF090E742E025E033
:1003100025E02427F582E43410F583E090100DF0F9
:1003200090E742E025E025E02428F582E43410F54A
:1003300083E090100EF090E743E025E025E0241DD7
:10034000F582E43410F583E0901019F090E743E073
:1003500025E025E0241EF582E43410F583E09010BA
:100360001AF090E743E025E025E0241FF582E4340D
:1003700010F583E090101BF090E743E025E025E0C6
:100380002420F582E43410F583E090101CF0E49012
:10039000E68AF090E68BF08052120FF0504D90E616
:1003A000B8E024FE60112402704190E6BAE0B40186
:1003B00004C2008036802D90E6BAE0602E802512BF
:1003C0000FF2502790E6B8E024FE60112402701B63
:1003D00090E6BAE0B40104D20080108007800512D4
:1003E0000FF4500790E6A0E04401F090E6A0E0444E
:0203F00080F09B
:0103F20022E8
:03003300020FE4D5
:040FE40053D8EF32BD
:03004300020D00AB
:03005300020D009B
:100D00000209E700020FAA00020F9400020CDF00A4
:100D1000020E4400020E7B000209FF00020CFF00DD
:100D2000020FF600020FF700020FF800020FF900A1
:100D3000020FFA00020FFB00020FFC00020FFD0081
:100D4000020FFE00020CFF00020FFF000210000065
:100D50000210010002100200021003000210040041
:100D600002100500020CFF00020CFF00020CFF0045
:100D7000021006000210070002100800021009000D
:100D800002100A0002100B0002100C0002100D00ED
:100D900002100E0002100F000210100002101100CD
:100DA00002101200021013000210140002101500AD
:080DB0000210160002101700EA
:100F180090E682E030E004E020E60B90E682E030E4
:100F2800E119E030E71590E680E04401F07F147E97
:0C0F3800001209A190E680E054FEF022B7
:100EE90030040990E680E0440AF0800790E680E04B
:100EF9004408F07FDC7E051209A190E65D74FFF0DD
:0F0F090090E65FF05391EF90E680E054F7F0220E
:020F4400A907FB
:100F4600AE2FAF308F828E83A3E064037017AD019E
:100F560019ED7001228F828E83E07C002FFDEC3E1E
:080F6600FEAF0580DFE4FEFF91
:010F6E002260
:100F6F0090E682E044C0F090E681F04387010000F4
:040F7F00000000224C
:1009A1008E188F1990E600E054187012E519240191
:1009B100FFE43518C313F518EF13F519801590E608
:1009C10000E05418FFBF100BE51925E0F519E518F3
:1009D10033F518E5191519AE18700215184E600592
:0609E100120F8380EE22DC
:100F83007400F58690FDA57C05A3E582458370F981
:010F9300223B
:100A000012010002EF0201409AFB9AFB0100020171
:100A100001010A060002EF020140010009027E0105
:100A2000040101A0FA080B00020E030001090400F2
:100A300000000E0100000D240100015000006CDCDC
:100A40000201011224020101020000000000000066
:100A500000030000000C2405020100000300000058
:100A6000001C240603FFFFFFFFFFFFFFFFFFFFFF48
:100A7000FFFFFFFFFF000102030000000009240345
:100A800004010100030009040100000E0200000F30
:100A9000240102B9008600040101000100000B24BA
:100AA0000601020101000000001E240701020004EB
:100AB00000030000000E0000000E000018002A2CA9
:100AC0000A00012A2C0A001E240702020005D00297
:100AD0000000000E0000000E00201C002A2C0A005E
:100AE000012A2C0A0006240D0101041B2404020221
:100AF0005955593200001000800000AA00389B713F
:100B00001001000000001E24050102000400030083
:100B100000000E0000000E000018005458140001E0
:100B2000545814001E240502020005D002000000E3
:100B30000E0000000E00201C0054581400015458F0
:100B4000140006240D01010409040101010E020034
:100B50000007058601000401080B020202000101E2
:100B6000090402000102020101052400100105240C
:100B70000602030524010003042402020705810381
:100B800010001109040300020A0000010705840295
:100B90000002000705010200020004030904120319
:100BA000480044004D004900320055005300420007
:0C0BB0000A034A0041004E00490000000A
:030CDB00011AFFFC
:1003F30000000000000000000000000000000000FA
:1004030090E600E054E74410F00000000000000014
:1004130000000000000000000090E60174E3F0001B
:100423000000000000000000000000000000009039
:10043300E61074A0F00000000000000000000000BF
:10044300000000000090E611F00000000000000032
:1004530000000000000000000090E61274A2F0000B
:1004630000000000000000000000000000000090F9
:10047300E61374E2F000000000000000000000003A
:10048300000000000090E61474DAF00000000000A1
:100493000000000000000000000000E490E615F0FA
:1004A3000000000000000000000000000000000049
:1004B30090E6187410F00000000000000000000037
:1004C30000000000000090E619740CF0000000002A
:1004D30000000000000000000000000090E61AF099
:1004E3000000000000000000000000000000000009
:1004F300E490E61BF0000000000000000000000094
:10050300000000000090E6227402F00000000000EA
:100513000000000000000000000000E490E623F06B
:1005230000000000000000000000000000000000C8
:1005330090E6247404F000000000000000000000B6
:10054300000000000000E490E625F0000000000039
:10055300000000000000000000000090E60B7403A0
:10056300F000000000000000000000000000000098
:100573000090E6047480F00000000000000000001A
:10058300000000000000007482F000000000000082
:10059300000000000000000000007484F000000070
:1005A300000000000000000000000000007486F05E
:1005B3000000000000000000000000000000000038
:1005C300E4F0000000000000000000000000000054
:1005D300000090E618F0000000000000000000009A
:1005E30000000000000090E6497482F00000000063
:1005F300000000000000000000000000F0E490E6AE
:030603008DF02255
:100BBC0090E6A1E030E103020C720000000000009E
:100BCC000000000000000000000090E6047480F0BB
:100BDC000000000000000000000000000000000009
:100BEC007402F0E4FF90E68DE0FEEFC39E501B74A0
:100BFC00802FF582E434E7F583E0FE74002FF58254
:100C0C00E434F0F583EEF00F80DB00000000000010
:100C1C0000000000000000000000E490E690F000EE
:100C2C000000000000000000000000000000009028
:100C3C00E68DE090E691F00000000000000000005E
:100C4C000000000000000090E6497482F0000000F3
:100C5C0000000000000000000000000000E490E62E
:100C6C0004F090E68DF090E6A2E020E12490E7C03D
:100C7C00740AF0A37420F0E4A3F0A3F0A3F0A3F0A3
:100C8C00A3F0A37402F0E4A3F0A3F090E68F740A2F
:010C9C00F067
:010C9D002234
:020FE800D32212
:020FEA00D32210
:020FEC00D3220E
:080CF70090E6BAE0F51BD322E0
:100FC00090E740E51BF0E490E68AF090E68B04F0B1
:020FD000D3222A
:1006060090E6BAE0F51A640160030207DA0000001A
:100616000000000000000000000000000090E6045A
:100626007480F000000000000000000000000000E0
:100636000000007402F0000000000000000000004E
:1006460000000000000090F0007455F0000000006B
:10065600000000000000000000000000A37446F047
:100666000000000000000000000000000000000084
:10067600A37455F000000000000000000000000018
:1006860000000000A304F0000000000000000000CD
:1006960000000000000000A314F0901009E06401BF
:1006A60070180000000000000000000000000000BC
:1006B600000090F005744AF080160000000000006B
:1006C6000000000000000000000090F0057452F0E9
:1006D6000000000000000000000000000000000014
:1006E60090F0067455F090100AE06401701800004E
:1006F600000000000000000000000000000090F074
:10070600077444F08016000000000000000000009E
:1007160000000000000090F0077448F000000000A0
:1007260000000000000000000000000090F00874C7
:1007360055F000000000000000000000000000006E
:100746000000A3744EF0000000000000000000004E
:10075600000000000000E490E690F00000000000B9
:10076600000000000000000000000090E691740AFE
:10077600F000000000000000000000000000000083
:100786000090E6497482F0000000000000000000BE
:1007960000000000000000E490E604F00000000005
:1007A6000000000000000000000000007480F0005F
:1007B60000000000000000000000000000000074BF
:1007C60006F000000000000000000000000000002D
:0607D6000000E4F0D32254
:100FD20090E740E51AF0E490E68AF090E68B04F0A0
:020FE200D32218
:020FEE00D3220C
:020FF000D3220A
:020FF200D32208
:020FF400D32206
:1009E700C0E0C083C082D2015391EF90E65D7401ED
:0809F700F0D082D083D0E03281
:100F9400C0E0C083C0825391EF90E65D7404F0D04A
:060FA40082D083D0E03290
:100FAA00C0E0C083C0825391EF90E65D7402F0D036
:060FBA0082D083D0E0327A
:100E4400C0E0C083C08290E680E030E70E852125B3
:100E5400852226852927852A28800C852925852A07
:100E6400268521278522285391EF90E65D7410F0A2
:070E7400D082D083D0E032F0
:100CDF00C0E0C083C082D2035391EF90E65D7408E9
:080CEF00F0D082D083D0E03286
:100E7B00C0E0C083C08290E680E030E70E8521257C
:100E8B00852226852927852A28800C852925852AD0
:100E9B00268521278522285391EF90E65D7420F05B
:070EAB00D082D083D0E032B9
:0109FF0032C5
:010CFF0032C2
:010FF60032C8
:010FF70032C7
:010FF80032C6
:010FF90032C5
:010FFA0032C4
:010FFB0032C3
:010FFC0032C2
:010FFD0032C1
:010FFE0032C0
:010FFF0032BF
:0110000032BD
:0110010032BC
:0110020032BB
:0110030032BA
:0110040032B9
:0110050032B8
:0110060032B7
:0110070032B6
:0110080032B5
:0110090032B4
:01100A0032B3
:01100B0032B2
:01100C0032B1
:01100D0032B0
:01100E0032AF
:01100F0032AE
:0110100032AD
:0110110032AC
:0110120032AB
:0110130032AA
:0110140032A9
:0110150032A8
:0110160032A7
:0110170032A6
:03000000020DB836
:0C0DB800787FE4F6D8FD758130020DFF55
:100EB200EB9FF5F0EA9E42F0E99D42F0E89C45F096
:010EC200220D
:100EC300D083D082F8E4937012740193700DA3A3BE
:100ED30093F8740193C0E0E8C0E022740293686061
:060EE300EFA3A3A380DFD2
:100DC4000207DCE493A3F8E493A34003F68001F262
:100DD40008DFF48029E493A3F85407240CC8C33330
:100DE400C4540F4420C8834004F456800146F6DFFF
:100DF400E4800B0102040810204080900C9EE47EE5
:100E0400019360BCA3FF543F30E509541FFEE493F3
:100E1400A360010ECF54C025E060A840B8E493A3BA
:100E2400FAE493A3F8E493A3C8C582C8CAC583CAE5
:100E3400F0A3C8C582C8CAC583CADFE9DEE780BE9D
:010CDE000015
:00000001FF
